{
  "contractName": "InstaStake",
  "abi": [
    {
      "constant": true,
      "inputs": [],
      "name": "portfolioId",
      "outputs": [
        {
          "internalType": "uint8",
          "name": "",
          "type": "uint8"
        }
      ],
      "payable": false,
      "stateMutability": "view",
      "type": "function"
    },
    {
      "constant": false,
      "inputs": [],
      "name": "renounceOwnership",
      "outputs": [],
      "payable": false,
      "stateMutability": "nonpayable",
      "type": "function"
    },
    {
      "constant": true,
      "inputs": [],
      "name": "owner",
      "outputs": [
        {
          "internalType": "address",
          "name": "",
          "type": "address"
        }
      ],
      "payable": false,
      "stateMutability": "view",
      "type": "function"
    },
    {
      "constant": true,
      "inputs": [],
      "name": "isOwner",
      "outputs": [
        {
          "internalType": "bool",
          "name": "",
          "type": "bool"
        }
      ],
      "payable": false,
      "stateMutability": "view",
      "type": "function"
    },
    {
      "constant": true,
      "inputs": [],
      "name": "kyberProxy",
      "outputs": [
        {
          "internalType": "contract KyberNetworkProxyInterface",
          "name": "",
          "type": "address"
        }
      ],
      "payable": false,
      "stateMutability": "view",
      "type": "function"
    },
    {
      "constant": false,
      "inputs": [
        {
          "internalType": "address",
          "name": "newOwner",
          "type": "address"
        }
      ],
      "name": "transferOwnership",
      "outputs": [],
      "payable": false,
      "stateMutability": "nonpayable",
      "type": "function"
    },
    {
      "constant": true,
      "inputs": [],
      "name": "vault",
      "outputs": [
        {
          "internalType": "address payable",
          "name": "",
          "type": "address"
        }
      ],
      "payable": false,
      "stateMutability": "view",
      "type": "function"
    },
    {
      "inputs": [
        {
          "internalType": "address",
          "name": "_kyberProxy",
          "type": "address"
        }
      ],
      "payable": false,
      "stateMutability": "nonpayable",
      "type": "constructor"
    },
    {
      "anonymous": false,
      "inputs": [
        {
          "indexed": true,
          "internalType": "address",
          "name": "previousOwner",
          "type": "address"
        },
        {
          "indexed": true,
          "internalType": "address",
          "name": "newOwner",
          "type": "address"
        }
      ],
      "name": "OwnershipTransferred",
      "type": "event"
    },
    {
      "constant": false,
      "inputs": [
        {
          "internalType": "contract IERC20[]",
          "name": "tokens",
          "type": "address[]"
        },
        {
          "internalType": "contract Investor[]",
          "name": "investorContracts",
          "type": "address[]"
        },
        {
          "internalType": "uint8[]",
          "name": "weights",
          "type": "uint8[]"
        }
      ],
      "name": "createPortfolio",
      "outputs": [],
      "payable": false,
      "stateMutability": "nonpayable",
      "type": "function"
    },
    {
      "constant": false,
      "inputs": [
        {
          "internalType": "uint8",
          "name": "portfolioStrategy",
          "type": "uint8"
        },
        {
          "internalType": "contract IERC20",
          "name": "srcToken",
          "type": "address"
        },
        {
          "internalType": "uint256",
          "name": "amount",
          "type": "uint256"
        }
      ],
      "name": "buy",
      "outputs": [],
      "payable": false,
      "stateMutability": "nonpayable",
      "type": "function"
    }
  ],
  "bytecode": "0x608060405234801561001057600080fd5b506040516114e13803806114e18339818101604052602081101561003357600080fd5b8101908080519060200190929190505050336000806101000a81548173ffffffffffffffffffffffffffffffffffffffff021916908373ffffffffffffffffffffffffffffffffffffffff1602179055506000809054906101000a900473ffffffffffffffffffffffffffffffffffffffff1673ffffffffffffffffffffffffffffffffffffffff16600073ffffffffffffffffffffffffffffffffffffffff167f8be0079c531659141344cd1fd0a4f28419497f9722a3daafe3b4186f6b6457e060405160405180910390a380600160006101000a81548173ffffffffffffffffffffffffffffffffffffffff021916908373ffffffffffffffffffffffffffffffffffffffff16021790555050611390806101516000396000f3fe608060405234801561001057600080fd5b50600436106100935760003560e01c80638f32d59b116100665780638f32d59b1461016b578063f0eeed811461018d578063f2fde38b146101d7578063fbfa77cf1461021b578063fda950501461026557610093565b806323599848146100985780636fc4455e146100f3578063715018a6146101175780638da5cb5b14610121575b600080fd5b6100f1600480360360608110156100ae57600080fd5b81019080803560ff169060200190929190803573ffffffffffffffffffffffffffffffffffffffff16906020019092919080359060200190929190505050610388565b005b6100fb610a57565b604051808260ff1660ff16815260200191505060405180910390f35b61011f610a6a565b005b610129610ba3565b604051808273ffffffffffffffffffffffffffffffffffffffff1673ffffffffffffffffffffffffffffffffffffffff16815260200191505060405180910390f35b610173610bcc565b604051808215151515815260200191505060405180910390f35b610195610c23565b604051808273ffffffffffffffffffffffffffffffffffffffff1673ffffffffffffffffffffffffffffffffffffffff16815260200191505060405180910390f35b610219600480360360208110156101ed57600080fd5b81019080803573ffffffffffffffffffffffffffffffffffffffff169060200190929190505050610c49565b005b610223610ccf565b604051808273ffffffffffffffffffffffffffffffffffffffff1673ffffffffffffffffffffffffffffffffffffffff16815260200191505060405180910390f35b6103866004803603606081101561027b57600080fd5b810190808035906020019064010000000081111561029857600080fd5b8201836020820111156102aa57600080fd5b803590602001918460208302840111640100000000831117156102cc57600080fd5b9091929391929390803590602001906401000000008111156102ed57600080fd5b8201836020820111156102ff57600080fd5b8035906020019184602083028401116401000000008311171561032157600080fd5b90919293919293908035906020019064010000000081111561034257600080fd5b82018360208201111561035457600080fd5b8035906020019184602083028401116401000000008311171561037657600080fd5b9091929391929390505050610cf5565b005b6000600360008560ff1660ff16815260200190815260200160002090506000816000018054905011610422576040517f08c379a00000000000000000000000000000000000000000000000000000000081526004018080602001828103825260148152602001807f496e76616c696420706f7274666f6c696f20494400000000000000000000000081525060200191505060405180910390fd5b8273ffffffffffffffffffffffffffffffffffffffff166323b872dd3330856040518463ffffffff1660e01b8152600401808473ffffffffffffffffffffffffffffffffffffffff1673ffffffffffffffffffffffffffffffffffffffff1681526020018373ffffffffffffffffffffffffffffffffffffffff1673ffffffffffffffffffffffffffffffffffffffff1681526020018281526020019350505050602060405180830381600087803b1580156104dd57600080fd5b505af11580156104f1573d6000803e3d6000fd5b505050506040513d602081101561050757600080fd5b810190808051906020019092919050505061058a576040517f08c379a00000000000000000000000000000000000000000000000000000000081526004018080602001828103825260188152602001807f737263546f6b656e207472616e73666572206661696c6564000000000000000081525060200191505060405180910390fd5b8273ffffffffffffffffffffffffffffffffffffffff1663095ea7b3600160009054906101000a900473ffffffffffffffffffffffffffffffffffffffff16846040518363ffffffff1660e01b8152600401808373ffffffffffffffffffffffffffffffffffffffff1673ffffffffffffffffffffffffffffffffffffffff16815260200182815260200192505050602060405180830381600087803b15801561063357600080fd5b505af1158015610647573d6000803e3d6000fd5b505050506040513d602081101561065d57600080fd5b81019080805190602001909291905050506106e0576040517f08c379a00000000000000000000000000000000000000000000000000000000081526004018080602001828103825260178152602001807f737263546f6b656e20617070726f7665206661696c656400000000000000000081525060200191505060405180910390fd5b60008090505b81600001805490508160ff161015610a50576000826000018260ff168154811061070c57fe5b9060005260206000209060020201905060008160000160009054906101000a900473ffffffffffffffffffffffffffffffffffffffff169050600060648360010160149054906101000a900460ff1660ff1687028161076757fe5b0490506000600160009054906101000a900473ffffffffffffffffffffffffffffffffffffffff1673ffffffffffffffffffffffffffffffffffffffff1663809a9e558985856040518463ffffffff1660e01b8152600401808473ffffffffffffffffffffffffffffffffffffffff1673ffffffffffffffffffffffffffffffffffffffff1681526020018373ffffffffffffffffffffffffffffffffffffffff1673ffffffffffffffffffffffffffffffffffffffff1681526020018281526020019350505050604080518083038186803b15801561084657600080fd5b505afa15801561085a573d6000803e3d6000fd5b505050506040513d604081101561087057600080fd5b81019080805190602001909291908051906020019092919050505050905060008460010160009054906101000a900473ffffffffffffffffffffffffffffffffffffffff1690506108c48984868486610f8c565b8460010160009054906101000a900473ffffffffffffffffffffffffffffffffffffffff1673ffffffffffffffffffffffffffffffffffffffff1663b9b8c246338673ffffffffffffffffffffffffffffffffffffffff166370a08231856040518263ffffffff1660e01b8152600401808273ffffffffffffffffffffffffffffffffffffffff1673ffffffffffffffffffffffffffffffffffffffff16815260200191505060206040518083038186803b15801561098257600080fd5b505afa158015610996573d6000803e3d6000fd5b505050506040513d60208110156109ac57600080fd5b81019080805190602001909291905050506040518363ffffffff1660e01b8152600401808373ffffffffffffffffffffffffffffffffffffffff1673ffffffffffffffffffffffffffffffffffffffff16815260200182815260200192505050600060405180830381600087803b158015610a2657600080fd5b505af1158015610a3a573d6000803e3d6000fd5b50505050505050505080806001019150506106e6565b5050505050565b600260149054906101000a900460ff1681565b610a72610bcc565b610ae4576040517f08c379a00000000000000000000000000000000000000000000000000000000081526004018080602001828103825260208152602001807f4f776e61626c653a2063616c6c6572206973206e6f7420746865206f776e657281525060200191505060405180910390fd5b600073ffffffffffffffffffffffffffffffffffffffff166000809054906101000a900473ffffffffffffffffffffffffffffffffffffffff1673ffffffffffffffffffffffffffffffffffffffff167f8be0079c531659141344cd1fd0a4f28419497f9722a3daafe3b4186f6b6457e060405160405180910390a360008060006101000a81548173ffffffffffffffffffffffffffffffffffffffff021916908373ffffffffffffffffffffffffffffffffffffffff160217905550565b60008060009054906101000a900473ffffffffffffffffffffffffffffffffffffffff16905090565b60008060009054906101000a900473ffffffffffffffffffffffffffffffffffffffff1673ffffffffffffffffffffffffffffffffffffffff163373ffffffffffffffffffffffffffffffffffffffff1614905090565b600160009054906101000a900473ffffffffffffffffffffffffffffffffffffffff1681565b610c51610bcc565b610cc3576040517f08c379a00000000000000000000000000000000000000000000000000000000081526004018080602001828103825260208152602001807f4f776e61626c653a2063616c6c6572206973206e6f7420746865206f776e657281525060200191505060405180910390fd5b610ccc816111a1565b50565b600260009054906101000a900473ffffffffffffffffffffffffffffffffffffffff1681565b610cfd610bcc565b610d6f576040517f08c379a00000000000000000000000000000000000000000000000000000000081526004018080602001828103825260208152602001807f4f776e61626c653a2063616c6c6572206973206e6f7420746865206f776e657281525060200191505060405180910390fd5b6000600360006002601481819054906101000a900460ff168092919060010191906101000a81548160ff021916908360ff16021790555060ff1660ff168152602001908152602001600020905060008090505b878790508160ff161015610f8257610dd86112e5565b60405180606001604052808a8a8560ff16818110610df257fe5b9050602002013573ffffffffffffffffffffffffffffffffffffffff1673ffffffffffffffffffffffffffffffffffffffff16815260200188888560ff16818110610e3957fe5b9050602002013573ffffffffffffffffffffffffffffffffffffffff1673ffffffffffffffffffffffffffffffffffffffff16815260200186868560ff16818110610e8057fe5b9050602002013560ff1660ff16815250905082600001819080600181540180825580915050906001820390600052602060002090600202016000909192909190915060008201518160000160006101000a81548173ffffffffffffffffffffffffffffffffffffffff021916908373ffffffffffffffffffffffffffffffffffffffff16021790555060208201518160010160006101000a81548173ffffffffffffffffffffffffffffffffffffffff021916908373ffffffffffffffffffffffffffffffffffffffff16021790555060408201518160010160146101000a81548160ff021916908360ff160217905550505050508080600101915050610dc2565b5050505050505050565b6060600160009054906101000a900473ffffffffffffffffffffffffffffffffffffffff1673ffffffffffffffffffffffffffffffffffffffff166329589f61878787876b204fce5e3e25026110000000886000896040518963ffffffff1660e01b8152600401808973ffffffffffffffffffffffffffffffffffffffff1673ffffffffffffffffffffffffffffffffffffffff1681526020018881526020018773ffffffffffffffffffffffffffffffffffffffff1673ffffffffffffffffffffffffffffffffffffffff1681526020018673ffffffffffffffffffffffffffffffffffffffff1673ffffffffffffffffffffffffffffffffffffffff1681526020018581526020018481526020018373ffffffffffffffffffffffffffffffffffffffff1673ffffffffffffffffffffffffffffffffffffffff16815260200180602001828103825283818151815260200191508051906020019080838360005b8381101561110a5780820151818401526020810190506110ef565b50505050905090810190601f1680156111375780820380516001836020036101000a031916815260200191505b509950505050505050505050602060405180830381600087803b15801561115d57600080fd5b505af1158015611171573d6000803e3d6000fd5b505050506040513d602081101561118757600080fd5b810190808051906020019092919050505050505050505050565b600073ffffffffffffffffffffffffffffffffffffffff168173ffffffffffffffffffffffffffffffffffffffff161415611227576040517f08c379a00000000000000000000000000000000000000000000000000000000081526004018080602001828103825260268152602001806113366026913960400191505060405180910390fd5b8073ffffffffffffffffffffffffffffffffffffffff166000809054906101000a900473ffffffffffffffffffffffffffffffffffffffff1673ffffffffffffffffffffffffffffffffffffffff167f8be0079c531659141344cd1fd0a4f28419497f9722a3daafe3b4186f6b6457e060405160405180910390a3806000806101000a81548173ffffffffffffffffffffffffffffffffffffffff021916908373ffffffffffffffffffffffffffffffffffffffff16021790555050565b6040518060600160405280600073ffffffffffffffffffffffffffffffffffffffff168152602001600073ffffffffffffffffffffffffffffffffffffffff168152602001600060ff168152509056fe4f776e61626c653a206e6577206f776e657220697320746865207a65726f2061646472657373a265627a7a72315820284ca194677edd3d9fb6429630413338e9f5ff9ae14a03898bd236c5a6f22db764736f6c634300050b0032",
  "source": "pragma solidity ^0.5.11;\n\nimport { IERC20 } from \"@openzeppelin/contracts/token/ERC20/IERC20.sol\";\nimport { IToken } from \"./IToken.sol\";\nimport { KyberNetworkProxyInterface } from \"./kyber/KyberNetworkProxyInterface.sol\";\nimport { FundManagerAcl } from \"./FundManagerAcl.sol\";\nimport { Investor } from \"./Investor.sol\";\n\ncontract InstaStake is FundManagerAcl {\n  uint256 constant internal MAX_QTY = 10 ** 28; // 10B tokens\n\n  KyberNetworkProxyInterface public kyberProxy;\n  address payable public vault;\n\n  struct Asset {\n    IERC20 token;\n    Investor tokenInvestor;\n    uint8 weight;\n  }\n\n  struct Portfolio {\n    Asset[] assets;\n  }\n\n  uint8 public portfolioId;\n  // portfolioId to Portfolio\n  mapping(uint8 => Portfolio) portfolios;\n\n  constructor(address _kyberProxy) public {\n    kyberProxy = KyberNetworkProxyInterface(_kyberProxy);\n  }\n\n  function createPortfolio(IERC20[] calldata tokens, Investor[] calldata investorContracts, uint8[] calldata weights) external onlyFundManager {\n    Portfolio storage portfolio = portfolios[portfolioId++];\n    for(uint8 i = 0; i < tokens.length; i++) {\n      Asset memory asset = Asset(tokens[i], investorContracts[i], weights[i]);\n      portfolio.assets.push(asset);\n    }\n  }\n\n  function buy(uint8 portfolioStrategy, IERC20 srcToken, uint256 amount) external {\n    Portfolio storage portfolio = portfolios[portfolioStrategy];\n    require(portfolio.assets.length > 0, \"Invalid portfolio ID\");\n    require(\n      srcToken.transferFrom(msg.sender, address(this), amount),\n      \"srcToken transfer failed\"\n    );\n    require(\n      srcToken.approve(address(kyberProxy), amount),\n      \"srcToken approve failed\"\n    );\n    for (uint8 i = 0; i < portfolio.assets.length; i++) {\n      Asset storage asset = portfolio.assets[i];\n      IERC20 destToken = asset.token;\n      uint256 srcQty = (amount * asset.weight) / 100;\n\n      // Get the minimum conversion rate\n      (uint256 minConversionRate,) = kyberProxy.getExpectedRate(srcToken, destToken, srcQty);\n      address payable destAddress = address(uint160(address(asset.tokenInvestor)));\n      swapTokenToToken(\n        srcToken,\n        srcQty,\n        destToken,\n        destAddress,\n        minConversionRate\n      );\n      asset.tokenInvestor.invest(msg.sender, destToken.balanceOf(destAddress)); // if partial fills is a thing, srcQty will be a problem\n    }\n  }\n\n  function swapTokenToToken(\n      IERC20 src,\n      uint srcAmount,\n      IERC20 dest,\n      address payable destAddress,\n      uint minConversionRate) internal {\n    bytes memory hint;\n    kyberProxy.tradeWithHint(\n      src,\n      srcAmount,\n      dest,\n      destAddress,\n      MAX_QTY,\n      minConversionRate,\n      address(0),\n      hint\n    );\n  }\n}\n",
  "sourcePath": "/Users/yj/Developer/instastake/contracts/InstaStake.sol",
  "compiler": {
    "name": "solc",
    "version": "0.5.11+commit.c082d0b4.Emscripten.clang"
  },
  "schemaVersion": "3.0.16",
  "updatedAt": "2019-10-23T17:17:50.007Z",
  "devdoc": {
    "methods": {
      "isOwner()": {
        "details": "Returns true if the caller is the current owner."
      },
      "owner()": {
        "details": "Returns the address of the current owner."
      },
      "renounceOwnership()": {
        "details": "Leaves the contract without owner. It will not be possible to call `onlyOwner` functions anymore. Can only be called by the current owner.     * > Note: Renouncing ownership will leave the contract without an owner, thereby removing any functionality that is only available to the owner."
      },
      "transferOwnership(address)": {
        "details": "Transfers ownership of the contract to a new account (`newOwner`). Can only be called by the current owner."
      }
    }
  },
  "userdoc": {
    "methods": {}
  }
}