{
  "contractName": "InstaStake",
  "abi": [
    {
      "constant": true,
      "inputs": [],
      "name": "portfolioId",
      "outputs": [
        {
          "internalType": "uint8",
          "name": "",
          "type": "uint8"
        }
      ],
      "payable": false,
      "stateMutability": "view",
      "type": "function"
    },
    {
      "constant": false,
      "inputs": [],
      "name": "renounceOwnership",
      "outputs": [],
      "payable": false,
      "stateMutability": "nonpayable",
      "type": "function"
    },
    {
      "constant": true,
      "inputs": [],
      "name": "owner",
      "outputs": [
        {
          "internalType": "address",
          "name": "",
          "type": "address"
        }
      ],
      "payable": false,
      "stateMutability": "view",
      "type": "function"
    },
    {
      "constant": true,
      "inputs": [],
      "name": "isOwner",
      "outputs": [
        {
          "internalType": "bool",
          "name": "",
          "type": "bool"
        }
      ],
      "payable": false,
      "stateMutability": "view",
      "type": "function"
    },
    {
      "constant": true,
      "inputs": [],
      "name": "kyberProxy",
      "outputs": [
        {
          "internalType": "contract KyberNetworkProxyInterface",
          "name": "",
          "type": "address"
        }
      ],
      "payable": false,
      "stateMutability": "view",
      "type": "function"
    },
    {
      "constant": false,
      "inputs": [
        {
          "internalType": "address",
          "name": "newOwner",
          "type": "address"
        }
      ],
      "name": "transferOwnership",
      "outputs": [],
      "payable": false,
      "stateMutability": "nonpayable",
      "type": "function"
    },
    {
      "constant": true,
      "inputs": [],
      "name": "vault",
      "outputs": [
        {
          "internalType": "address payable",
          "name": "",
          "type": "address"
        }
      ],
      "payable": false,
      "stateMutability": "view",
      "type": "function"
    },
    {
      "inputs": [
        {
          "internalType": "address",
          "name": "_kyberProxy",
          "type": "address"
        }
      ],
      "payable": false,
      "stateMutability": "nonpayable",
      "type": "constructor"
    },
    {
      "anonymous": false,
      "inputs": [
        {
          "indexed": true,
          "internalType": "address",
          "name": "previousOwner",
          "type": "address"
        },
        {
          "indexed": true,
          "internalType": "address",
          "name": "newOwner",
          "type": "address"
        }
      ],
      "name": "OwnershipTransferred",
      "type": "event"
    },
    {
      "constant": false,
      "inputs": [
        {
          "internalType": "contract IERC20[]",
          "name": "tokens",
          "type": "address[]"
        },
        {
          "internalType": "contract Investor[]",
          "name": "investorContracts",
          "type": "address[]"
        },
        {
          "internalType": "uint8[]",
          "name": "weights",
          "type": "uint8[]"
        }
      ],
      "name": "createPortfolio",
      "outputs": [],
      "payable": false,
      "stateMutability": "nonpayable",
      "type": "function"
    },
    {
      "constant": true,
      "inputs": [
        {
          "internalType": "uint8",
          "name": "portfolioStrategy",
          "type": "uint8"
        }
      ],
      "name": "getPortfolio",
      "outputs": [
        {
          "internalType": "address[]",
          "name": "tokens",
          "type": "address[]"
        },
        {
          "internalType": "uint8[]",
          "name": "weights",
          "type": "uint8[]"
        }
      ],
      "payable": false,
      "stateMutability": "view",
      "type": "function"
    },
    {
      "constant": false,
      "inputs": [
        {
          "internalType": "uint8",
          "name": "portfolioStrategy",
          "type": "uint8"
        },
        {
          "internalType": "contract IERC20[]",
          "name": "srcTokens",
          "type": "address[]"
        },
        {
          "internalType": "uint256",
          "name": "amount",
          "type": "uint256"
        }
      ],
      "name": "buy",
      "outputs": [],
      "payable": false,
      "stateMutability": "nonpayable",
      "type": "function"
    }
  ],
  "bytecode": "0x608060405234801561001057600080fd5b5060405161189c38038061189c8339818101604052602081101561003357600080fd5b8101908080519060200190929190505050336000806101000a81548173ffffffffffffffffffffffffffffffffffffffff021916908373ffffffffffffffffffffffffffffffffffffffff1602179055506000809054906101000a900473ffffffffffffffffffffffffffffffffffffffff1673ffffffffffffffffffffffffffffffffffffffff16600073ffffffffffffffffffffffffffffffffffffffff167f8be0079c531659141344cd1fd0a4f28419497f9722a3daafe3b4186f6b6457e060405160405180910390a380600160006101000a81548173ffffffffffffffffffffffffffffffffffffffff021916908373ffffffffffffffffffffffffffffffffffffffff1602179055505061174b806101516000396000f3fe608060405234801561001057600080fd5b506004361061009e5760003560e01c80638f32d59b116100665780638f32d59b14610279578063f0eeed811461029b578063f2fde38b146102e5578063fbfa77cf14610329578063fda95050146103735761009e565b806302155b13146100a357806356f2339e146101715780636fc4455e14610201578063715018a6146102255780638da5cb5b1461022f575b600080fd5b6100d2600480360360208110156100b957600080fd5b81019080803560ff169060200190929190505050610496565b604051808060200180602001838103835285818151815260200191508051906020019060200280838360005b838110156101195780820151818401526020810190506100fe565b50505050905001838103825284818151815260200191508051906020019060200280838360005b8381101561015b578082015181840152602081019050610140565b5050505090500194505050505060405180910390f35b6101ff6004803603606081101561018757600080fd5b81019080803560ff169060200190929190803590602001906401000000008111156101b157600080fd5b8201836020820111156101c357600080fd5b803590602001918460208302840111640100000000831117156101e557600080fd5b909192939192939080359060200190929190505050610608565b005b610209610e12565b604051808260ff1660ff16815260200191505060405180910390f35b61022d610e25565b005b610237610f5e565b604051808273ffffffffffffffffffffffffffffffffffffffff1673ffffffffffffffffffffffffffffffffffffffff16815260200191505060405180910390f35b610281610f87565b604051808215151515815260200191505060405180910390f35b6102a3610fde565b604051808273ffffffffffffffffffffffffffffffffffffffff1673ffffffffffffffffffffffffffffffffffffffff16815260200191505060405180910390f35b610327600480360360208110156102fb57600080fd5b81019080803573ffffffffffffffffffffffffffffffffffffffff169060200190929190505050611004565b005b61033161108a565b604051808273ffffffffffffffffffffffffffffffffffffffff1673ffffffffffffffffffffffffffffffffffffffff16815260200191505060405180910390f35b6104946004803603606081101561038957600080fd5b81019080803590602001906401000000008111156103a657600080fd5b8201836020820111156103b857600080fd5b803590602001918460208302840111640100000000831117156103da57600080fd5b9091929391929390803590602001906401000000008111156103fb57600080fd5b82018360208201111561040d57600080fd5b8035906020019184602083028401116401000000008311171561042f57600080fd5b90919293919293908035906020019064010000000081111561045057600080fd5b82018360208201111561046257600080fd5b8035906020019184602083028401116401000000008311171561048457600080fd5b90919293919293905050506110b0565b005b6060806000600360008560ff1660ff1681526020019081526020016000209050600081600001805490509050806040519080825280602002602001820160405280156104f15781602001602082028038833980820191505090505b509350806040519080825280602002602001820160405280156105235781602001602082028038833980820191505090505b50925060008090505b8181101561060057600083600001828154811061054557fe5b906000526020600020906002020190508060000160009054906101000a900473ffffffffffffffffffffffffffffffffffffffff1686838151811061058657fe5b602002602001019073ffffffffffffffffffffffffffffffffffffffff16908173ffffffffffffffffffffffffffffffffffffffff16815250508060010160149054906101000a900460ff168583815181106105de57fe5b602002602001019060ff16908160ff168152505050808060010191505061052c565b505050915091565b6000600360008660ff1660ff168152602001908152602001600020905060008160000180549050116106a2576040517f08c379a00000000000000000000000000000000000000000000000000000000081526004018080602001828103825260148152602001807f496e76616c696420706f7274666f6c696f20494400000000000000000000000081525060200191505060405180910390fd5b60008090505b81600001805490508160ff161015610e0a576000826000018260ff16815481106106ce57fe5b9060005260206000209060020201905060008160000160009054906101000a900473ffffffffffffffffffffffffffffffffffffffff169050600087878560ff1681811061071857fe5b9050602002013573ffffffffffffffffffffffffffffffffffffffff169050600060648460010160149054906101000a900460ff1660ff1688028161075957fe5b04905060008460010160009054906101000a900473ffffffffffffffffffffffffffffffffffffffff16905060008373ffffffffffffffffffffffffffffffffffffffff168573ffffffffffffffffffffffffffffffffffffffff16141561092b578473ffffffffffffffffffffffffffffffffffffffff166323b872dd3384866040518463ffffffff1660e01b8152600401808473ffffffffffffffffffffffffffffffffffffffff1673ffffffffffffffffffffffffffffffffffffffff1681526020018373ffffffffffffffffffffffffffffffffffffffff1673ffffffffffffffffffffffffffffffffffffffff1681526020018281526020019350505050602060405180830381600087803b15801561087657600080fd5b505af115801561088a573d6000803e3d6000fd5b505050506040513d60208110156108a057600080fd5b8101908080519060200190929190505050610923576040517f08c379a000000000000000000000000000000000000000000000000000000000815260040180806020018281038252601d8152602001807f64657374546f6b656e2e7472616e7366657246726f6d206661696c656400000081525060200191505060405180910390fd5b829050610d34565b8373ffffffffffffffffffffffffffffffffffffffff166323b872dd33308c6040518463ffffffff1660e01b8152600401808473ffffffffffffffffffffffffffffffffffffffff1673ffffffffffffffffffffffffffffffffffffffff1681526020018373ffffffffffffffffffffffffffffffffffffffff1673ffffffffffffffffffffffffffffffffffffffff1681526020018281526020019350505050602060405180830381600087803b1580156109e657600080fd5b505af11580156109fa573d6000803e3d6000fd5b505050506040513d6020811015610a1057600080fd5b8101908080519060200190929190505050610a93576040517f08c379a00000000000000000000000000000000000000000000000000000000081526004018080602001828103825260188152602001807f737263546f6b656e207472616e73666572206661696c6564000000000000000081525060200191505060405180910390fd5b8373ffffffffffffffffffffffffffffffffffffffff1663095ea7b3600160009054906101000a900473ffffffffffffffffffffffffffffffffffffffff168b6040518363ffffffff1660e01b8152600401808373ffffffffffffffffffffffffffffffffffffffff1673ffffffffffffffffffffffffffffffffffffffff16815260200182815260200192505050602060405180830381600087803b158015610b3c57600080fd5b505af1158015610b50573d6000803e3d6000fd5b505050506040513d6020811015610b6657600080fd5b8101908080519060200190929190505050610be9576040517f08c379a00000000000000000000000000000000000000000000000000000000081526004018080602001828103825260178152602001807f737263546f6b656e20617070726f7665206661696c656400000000000000000081525060200191505060405180910390fd5b6000600160009054906101000a900473ffffffffffffffffffffffffffffffffffffffff1673ffffffffffffffffffffffffffffffffffffffff1663809a9e558688876040518463ffffffff1660e01b8152600401808473ffffffffffffffffffffffffffffffffffffffff1673ffffffffffffffffffffffffffffffffffffffff1681526020018373ffffffffffffffffffffffffffffffffffffffff1673ffffffffffffffffffffffffffffffffffffffff1681526020018281526020019350505050604080518083038186803b158015610cc557600080fd5b505afa158015610cd9573d6000803e3d6000fd5b505050506040513d6040811015610cef57600080fd5b8101908080519060200190929190805190602001909291905050505080915050610d1c8585888685611347565b80670de0b6b3a76400008581610d2e57fe5b04029150505b8560010160009054906101000a900473ffffffffffffffffffffffffffffffffffffffff1673ffffffffffffffffffffffffffffffffffffffff1663b9b8c24633836040518363ffffffff1660e01b8152600401808373ffffffffffffffffffffffffffffffffffffffff1673ffffffffffffffffffffffffffffffffffffffff16815260200182815260200192505050600060405180830381600087803b158015610ddf57600080fd5b505af1158015610df3573d6000803e3d6000fd5b5050505050505050505080806001019150506106a8565b505050505050565b600260149054906101000a900460ff1681565b610e2d610f87565b610e9f576040517f08c379a00000000000000000000000000000000000000000000000000000000081526004018080602001828103825260208152602001807f4f776e61626c653a2063616c6c6572206973206e6f7420746865206f776e657281525060200191505060405180910390fd5b600073ffffffffffffffffffffffffffffffffffffffff166000809054906101000a900473ffffffffffffffffffffffffffffffffffffffff1673ffffffffffffffffffffffffffffffffffffffff167f8be0079c531659141344cd1fd0a4f28419497f9722a3daafe3b4186f6b6457e060405160405180910390a360008060006101000a81548173ffffffffffffffffffffffffffffffffffffffff021916908373ffffffffffffffffffffffffffffffffffffffff160217905550565b60008060009054906101000a900473ffffffffffffffffffffffffffffffffffffffff16905090565b60008060009054906101000a900473ffffffffffffffffffffffffffffffffffffffff1673ffffffffffffffffffffffffffffffffffffffff163373ffffffffffffffffffffffffffffffffffffffff1614905090565b600160009054906101000a900473ffffffffffffffffffffffffffffffffffffffff1681565b61100c610f87565b61107e576040517f08c379a00000000000000000000000000000000000000000000000000000000081526004018080602001828103825260208152602001807f4f776e61626c653a2063616c6c6572206973206e6f7420746865206f776e657281525060200191505060405180910390fd5b6110878161155c565b50565b600260009054906101000a900473ffffffffffffffffffffffffffffffffffffffff1681565b6110b8610f87565b61112a576040517f08c379a00000000000000000000000000000000000000000000000000000000081526004018080602001828103825260208152602001807f4f776e61626c653a2063616c6c6572206973206e6f7420746865206f776e657281525060200191505060405180910390fd5b6000600360006002601481819054906101000a900460ff168092919060010191906101000a81548160ff021916908360ff16021790555060ff1660ff168152602001908152602001600020905060008090505b878790508160ff16101561133d576111936116a0565b60405180606001604052808a8a8560ff168181106111ad57fe5b9050602002013573ffffffffffffffffffffffffffffffffffffffff1673ffffffffffffffffffffffffffffffffffffffff16815260200188888560ff168181106111f457fe5b9050602002013573ffffffffffffffffffffffffffffffffffffffff1673ffffffffffffffffffffffffffffffffffffffff16815260200186868560ff1681811061123b57fe5b9050602002013560ff1660ff16815250905082600001819080600181540180825580915050906001820390600052602060002090600202016000909192909190915060008201518160000160006101000a81548173ffffffffffffffffffffffffffffffffffffffff021916908373ffffffffffffffffffffffffffffffffffffffff16021790555060208201518160010160006101000a81548173ffffffffffffffffffffffffffffffffffffffff021916908373ffffffffffffffffffffffffffffffffffffffff16021790555060408201518160010160146101000a81548160ff021916908360ff16021790555050505050808060010191505061117d565b5050505050505050565b6060600160009054906101000a900473ffffffffffffffffffffffffffffffffffffffff1673ffffffffffffffffffffffffffffffffffffffff166329589f61878787876b204fce5e3e25026110000000886000896040518963ffffffff1660e01b8152600401808973ffffffffffffffffffffffffffffffffffffffff1673ffffffffffffffffffffffffffffffffffffffff1681526020018881526020018773ffffffffffffffffffffffffffffffffffffffff1673ffffffffffffffffffffffffffffffffffffffff1681526020018673ffffffffffffffffffffffffffffffffffffffff1673ffffffffffffffffffffffffffffffffffffffff1681526020018581526020018481526020018373ffffffffffffffffffffffffffffffffffffffff1673ffffffffffffffffffffffffffffffffffffffff16815260200180602001828103825283818151815260200191508051906020019080838360005b838110156114c55780820151818401526020810190506114aa565b50505050905090810190601f1680156114f25780820380516001836020036101000a031916815260200191505b509950505050505050505050602060405180830381600087803b15801561151857600080fd5b505af115801561152c573d6000803e3d6000fd5b505050506040513d602081101561154257600080fd5b810190808051906020019092919050505050505050505050565b600073ffffffffffffffffffffffffffffffffffffffff168173ffffffffffffffffffffffffffffffffffffffff1614156115e2576040517f08c379a00000000000000000000000000000000000000000000000000000000081526004018080602001828103825260268152602001806116f16026913960400191505060405180910390fd5b8073ffffffffffffffffffffffffffffffffffffffff166000809054906101000a900473ffffffffffffffffffffffffffffffffffffffff1673ffffffffffffffffffffffffffffffffffffffff167f8be0079c531659141344cd1fd0a4f28419497f9722a3daafe3b4186f6b6457e060405160405180910390a3806000806101000a81548173ffffffffffffffffffffffffffffffffffffffff021916908373ffffffffffffffffffffffffffffffffffffffff16021790555050565b6040518060600160405280600073ffffffffffffffffffffffffffffffffffffffff168152602001600073ffffffffffffffffffffffffffffffffffffffff168152602001600060ff168152509056fe4f776e61626c653a206e6577206f776e657220697320746865207a65726f2061646472657373a265627a7a723158209edd99ec0125368b6f7368d4702ae8e3425fb817bc53b2df4b5e629944025d0164736f6c634300050b0032",
  "source": "pragma solidity ^0.5.11;\n\nimport { IERC20 } from \"@openzeppelin/contracts/token/ERC20/IERC20.sol\";\nimport { KyberNetworkProxyInterface } from \"./kyber/KyberNetworkProxyInterface.sol\";\nimport { FundManagerAcl } from \"./FundManagerAcl.sol\";\nimport { Investor } from \"./Investor.sol\";\n\ncontract InstaStake is FundManagerAcl {\n  uint256 constant internal MAX_QTY = 10 ** 28; // 10B tokens\n\n  KyberNetworkProxyInterface public kyberProxy;\n  address payable public vault;\n\n  struct Asset {\n    IERC20 token;\n    Investor tokenInvestor;\n    uint8 weight;\n  }\n\n  struct Portfolio {\n    Asset[] assets;\n  }\n\n  uint8 public portfolioId;\n  // portfolioId to Portfolio\n  mapping(uint8 => Portfolio) portfolios;\n\n  constructor(address _kyberProxy) public {\n    kyberProxy = KyberNetworkProxyInterface(_kyberProxy);\n  }\n\n  function createPortfolio(IERC20[] calldata tokens, Investor[] calldata investorContracts, uint8[] calldata weights) external onlyFundManager {\n    Portfolio storage portfolio = portfolios[portfolioId++];\n    for(uint8 i = 0; i < tokens.length; i++) {\n      Asset memory asset = Asset(tokens[i], investorContracts[i], weights[i]);\n      portfolio.assets.push(asset);\n    }\n  }\n\n  function getPortfolio(uint8 portfolioStrategy)\n    public view\n    returns(address[] memory tokens, uint8[] memory weights)\n  {\n    Portfolio storage portfolio = portfolios[portfolioStrategy];\n    uint256 length = portfolio.assets.length;\n    tokens = new address[](length);\n    weights = new uint8[](length);\n\n    for (uint256 i = 0; i < length; i++) {\n      Asset storage asset = portfolio.assets[i];\n      tokens[i] = address(asset.token);\n      weights[i] = asset.weight;\n    }\n\n    // return(tokens, weights);\n  }\n\n  function buy(uint8 portfolioStrategy, IERC20[] calldata srcTokens, uint256 amount) external {\n    Portfolio storage portfolio = portfolios[portfolioStrategy];\n    require(portfolio.assets.length > 0, \"Invalid portfolio ID\");\n    for (uint8 i = 0; i < portfolio.assets.length; i++) {\n      Asset storage asset = portfolio.assets[i];\n      IERC20 destToken = asset.token;\n      IERC20 srcToken = srcTokens[i];\n      uint256 srcQty = (amount * asset.weight) / 100;\n      address payable destAddress = address(uint160(address(asset.tokenInvestor)));\n\n      uint256 destAmount;\n      if (address(destToken) == address(srcToken)) {\n        // user wants to pay directly with the destToken\n        require(\n          destToken.transferFrom(msg.sender, destAddress, srcQty),\n          \"destToken.transferFrom failed\"\n        );\n        destAmount = srcQty;\n      } else {\n        // obtain destToken from Kyber swap\n        require(\n          srcToken.transferFrom(msg.sender, address(this), amount),\n          \"srcToken transfer failed\"\n        );\n        require(\n          srcToken.approve(address(kyberProxy), amount),\n          \"srcToken approve failed\"\n        );\n        // Get the minimum conversion rate\n        uint256 minConversionRate;\n        (minConversionRate,) = kyberProxy.getExpectedRate(srcToken, destToken, srcQty);\n        swapTokenToToken(\n          srcToken,\n          srcQty,\n          destToken,\n          destAddress,\n          minConversionRate\n        );\n        // @todo cehck partial fills\n        destAmount = (srcQty / (10 ** 18)) * minConversionRate; // works for whole numbers of srcQty\n      }\n      asset.tokenInvestor.invest(msg.sender, destAmount);\n    }\n  }\n\n  function swapTokenToToken(\n      IERC20 src,\n      uint srcAmount,\n      IERC20 dest,\n      address payable destAddress,\n      uint minConversionRate) internal {\n    bytes memory hint;\n    kyberProxy.tradeWithHint(\n      src,\n      srcAmount,\n      dest,\n      destAddress,\n      MAX_QTY,\n      minConversionRate,\n      address(0),\n      hint\n    );\n  }\n}\n",
  "sourcePath": "/Users/arpit/projects/instastake/contracts/InstaStake.sol",
  "compiler": {
    "name": "solc",
    "version": "0.5.11+commit.c082d0b4.Emscripten.clang"
  },
  "schemaVersion": "3.0.16",
  "updatedAt": "2019-10-27T04:41:27.351Z",
  "devdoc": {
    "methods": {
      "isOwner()": {
        "details": "Returns true if the caller is the current owner."
      },
      "owner()": {
        "details": "Returns the address of the current owner."
      },
      "renounceOwnership()": {
        "details": "Leaves the contract without owner. It will not be possible to call `onlyOwner` functions anymore. Can only be called by the current owner.     * > Note: Renouncing ownership will leave the contract without an owner, thereby removing any functionality that is only available to the owner."
      },
      "transferOwnership(address)": {
        "details": "Transfers ownership of the contract to a new account (`newOwner`). Can only be called by the current owner."
      }
    }
  },
  "userdoc": {
    "methods": {}
  }
}