{
  "contractName": "InstaStake",
  "abi": [
    {
      "constant": true,
      "inputs": [],
      "name": "portfolioId",
      "outputs": [
        {
          "internalType": "uint8",
          "name": "",
          "type": "uint8"
        }
      ],
      "payable": false,
      "stateMutability": "view",
      "type": "function"
    },
    {
      "constant": false,
      "inputs": [],
      "name": "renounceOwnership",
      "outputs": [],
      "payable": false,
      "stateMutability": "nonpayable",
      "type": "function"
    },
    {
      "constant": true,
      "inputs": [],
      "name": "owner",
      "outputs": [
        {
          "internalType": "address",
          "name": "",
          "type": "address"
        }
      ],
      "payable": false,
      "stateMutability": "view",
      "type": "function"
    },
    {
      "constant": true,
      "inputs": [],
      "name": "isOwner",
      "outputs": [
        {
          "internalType": "bool",
          "name": "",
          "type": "bool"
        }
      ],
      "payable": false,
      "stateMutability": "view",
      "type": "function"
    },
    {
      "constant": true,
      "inputs": [],
      "name": "kyberProxy",
      "outputs": [
        {
          "internalType": "contract KyberNetworkProxyInterface",
          "name": "",
          "type": "address"
        }
      ],
      "payable": false,
      "stateMutability": "view",
      "type": "function"
    },
    {
      "constant": false,
      "inputs": [
        {
          "internalType": "address",
          "name": "newOwner",
          "type": "address"
        }
      ],
      "name": "transferOwnership",
      "outputs": [],
      "payable": false,
      "stateMutability": "nonpayable",
      "type": "function"
    },
    {
      "constant": true,
      "inputs": [],
      "name": "vault",
      "outputs": [
        {
          "internalType": "address payable",
          "name": "",
          "type": "address"
        }
      ],
      "payable": false,
      "stateMutability": "view",
      "type": "function"
    },
    {
      "inputs": [
        {
          "internalType": "address",
          "name": "_kyberProxy",
          "type": "address"
        }
      ],
      "payable": false,
      "stateMutability": "nonpayable",
      "type": "constructor"
    },
    {
      "anonymous": false,
      "inputs": [
        {
          "indexed": false,
          "internalType": "uint8",
          "name": "portfolioId",
          "type": "uint8"
        }
      ],
      "name": "NewPortfolio",
      "type": "event"
    },
    {
      "anonymous": false,
      "inputs": [
        {
          "indexed": true,
          "internalType": "address",
          "name": "previousOwner",
          "type": "address"
        },
        {
          "indexed": true,
          "internalType": "address",
          "name": "newOwner",
          "type": "address"
        }
      ],
      "name": "OwnershipTransferred",
      "type": "event"
    },
    {
      "constant": false,
      "inputs": [
        {
          "internalType": "contract IERC20[]",
          "name": "tokens",
          "type": "address[]"
        },
        {
          "internalType": "contract Investor[]",
          "name": "investorContracts",
          "type": "address[]"
        },
        {
          "internalType": "uint256[]",
          "name": "weights",
          "type": "uint256[]"
        }
      ],
      "name": "createPortfolio",
      "outputs": [],
      "payable": false,
      "stateMutability": "nonpayable",
      "type": "function"
    },
    {
      "constant": true,
      "inputs": [
        {
          "internalType": "uint8",
          "name": "portfolioStrategy",
          "type": "uint8"
        }
      ],
      "name": "getPortfolio",
      "outputs": [
        {
          "internalType": "address[]",
          "name": "tokens",
          "type": "address[]"
        },
        {
          "internalType": "uint256[]",
          "name": "weights",
          "type": "uint256[]"
        }
      ],
      "payable": false,
      "stateMutability": "view",
      "type": "function"
    },
    {
      "constant": true,
      "inputs": [
        {
          "internalType": "uint8",
          "name": "portfolioStrategy",
          "type": "uint8"
        },
        {
          "internalType": "contract IERC20",
          "name": "srcToken",
          "type": "address"
        },
        {
          "internalType": "uint256",
          "name": "amount",
          "type": "uint256"
        }
      ],
      "name": "buy2",
      "outputs": [
        {
          "internalType": "uint256[]",
          "name": "q",
          "type": "uint256[]"
        },
        {
          "internalType": "address[]",
          "name": "b",
          "type": "address[]"
        },
        {
          "internalType": "address[]",
          "name": "c",
          "type": "address[]"
        }
      ],
      "payable": false,
      "stateMutability": "view",
      "type": "function"
    },
    {
      "constant": false,
      "inputs": [
        {
          "internalType": "uint8",
          "name": "portfolioStrategy",
          "type": "uint8"
        },
        {
          "internalType": "contract IERC20",
          "name": "srcToken",
          "type": "address"
        },
        {
          "internalType": "uint256",
          "name": "amount",
          "type": "uint256"
        }
      ],
      "name": "buy",
      "outputs": [],
      "payable": false,
      "stateMutability": "nonpayable",
      "type": "function"
    }
  ],
  "bytecode": "0x608060405234801561001057600080fd5b50604051611d0f380380611d0f8339818101604052602081101561003357600080fd5b8101908080519060200190929190505050336000806101000a81548173ffffffffffffffffffffffffffffffffffffffff021916908373ffffffffffffffffffffffffffffffffffffffff1602179055506000809054906101000a900473ffffffffffffffffffffffffffffffffffffffff1673ffffffffffffffffffffffffffffffffffffffff16600073ffffffffffffffffffffffffffffffffffffffff167f8be0079c531659141344cd1fd0a4f28419497f9722a3daafe3b4186f6b6457e060405160405180910390a380600160006101000a81548173ffffffffffffffffffffffffffffffffffffffff021916908373ffffffffffffffffffffffffffffffffffffffff16021790555050611bbe806101516000396000f3fe608060405234801561001057600080fd5b50600436106100a95760003560e01c80638da5cb5b116100715780638da5cb5b146103455780638f32d59b1461038f578063ed71e0dc146103b1578063f0eeed81146104d4578063f2fde38b1461051e578063fbfa77cf14610562576100a9565b806302155b13146100ae578063235998481461017c5780636fc4455e146101d7578063715018a6146101fb5780637ad48b7114610205575b600080fd5b6100dd600480360360208110156100c457600080fd5b81019080803560ff1690602001909291905050506105ac565b604051808060200180602001838103835285818151815260200191508051906020019060200280838360005b83811015610124578082015181840152602081019050610109565b50505050905001838103825284818151815260200191508051906020019060200280838360005b8381101561016657808201518184015260208101905061014b565b5050505090500194505050505060405180910390f35b6101d56004803603606081101561019257600080fd5b81019080803560ff169060200190929190803573ffffffffffffffffffffffffffffffffffffffff16906020019092919080359060200190929190505050610709565b005b6101df610fb5565b604051808260ff1660ff16815260200191505060405180910390f35b610203610fc8565b005b61025e6004803603606081101561021b57600080fd5b81019080803560ff169060200190929190803573ffffffffffffffffffffffffffffffffffffffff16906020019092919080359060200190929190505050611101565b60405180806020018060200180602001848103845287818151815260200191508051906020019060200280838360005b838110156102a957808201518184015260208101905061028e565b50505050905001848103835286818151815260200191508051906020019060200280838360005b838110156102eb5780820151818401526020810190506102d0565b50505050905001848103825285818151815260200191508051906020019060200280838360005b8381101561032d578082015181840152602081019050610312565b50505050905001965050505050505060405180910390f35b61034d6113a5565b604051808273ffffffffffffffffffffffffffffffffffffffff1673ffffffffffffffffffffffffffffffffffffffff16815260200191505060405180910390f35b6103976113ce565b604051808215151515815260200191505060405180910390f35b6104d2600480360360608110156103c757600080fd5b81019080803590602001906401000000008111156103e457600080fd5b8201836020820111156103f657600080fd5b8035906020019184602083028401116401000000008311171561041857600080fd5b90919293919293908035906020019064010000000081111561043957600080fd5b82018360208201111561044b57600080fd5b8035906020019184602083028401116401000000008311171561046d57600080fd5b90919293919293908035906020019064010000000081111561048e57600080fd5b8201836020820111156104a057600080fd5b803590602001918460208302840111640100000000831117156104c257600080fd5b9091929391929390505050611425565b005b6104dc6116eb565b604051808273ffffffffffffffffffffffffffffffffffffffff1673ffffffffffffffffffffffffffffffffffffffff16815260200191505060405180910390f35b6105606004803603602081101561053457600080fd5b81019080803573ffffffffffffffffffffffffffffffffffffffff169060200190929190505050611711565b005b61056a611797565b604051808273ffffffffffffffffffffffffffffffffffffffff1673ffffffffffffffffffffffffffffffffffffffff16815260200191505060405180910390f35b6060806000600360008560ff1660ff1681526020019081526020016000209050600081600001805490509050806040519080825280602002602001820160405280156106075781602001602082028038833980820191505090505b509350806040519080825280602002602001820160405280156106395781602001602082028038833980820191505090505b50925060008090505b8181101561070157600083600001828154811061065b57fe5b906000526020600020906003020190508060000160009054906101000a900473ffffffffffffffffffffffffffffffffffffffff1686838151811061069c57fe5b602002602001019073ffffffffffffffffffffffffffffffffffffffff16908173ffffffffffffffffffffffffffffffffffffffff168152505080600201548583815181106106e757fe5b602002602001018181525050508080600101915050610642565b505050915091565b6000600360008560ff1660ff168152602001908152602001600020905060008160000180549050116107a3576040517f08c379a00000000000000000000000000000000000000000000000000000000081526004018080602001828103825260148152602001807f496e76616c696420706f7274666f6c696f20494400000000000000000000000081525060200191505060405180910390fd5b8273ffffffffffffffffffffffffffffffffffffffff166323b872dd3330856040518463ffffffff1660e01b8152600401808473ffffffffffffffffffffffffffffffffffffffff1673ffffffffffffffffffffffffffffffffffffffff1681526020018373ffffffffffffffffffffffffffffffffffffffff1673ffffffffffffffffffffffffffffffffffffffff1681526020018281526020019350505050602060405180830381600087803b15801561085e57600080fd5b505af1158015610872573d6000803e3d6000fd5b505050506040513d602081101561088857600080fd5b810190808051906020019092919050505061090b576040517f08c379a00000000000000000000000000000000000000000000000000000000081526004018080602001828103825260188152602001807f737263546f6b656e207472616e73666572206661696c6564000000000000000081525060200191505060405180910390fd5b8273ffffffffffffffffffffffffffffffffffffffff1663095ea7b3600160009054906101000a900473ffffffffffffffffffffffffffffffffffffffff16846040518363ffffffff1660e01b8152600401808373ffffffffffffffffffffffffffffffffffffffff1673ffffffffffffffffffffffffffffffffffffffff16815260200182815260200192505050602060405180830381600087803b1580156109b457600080fd5b505af11580156109c8573d6000803e3d6000fd5b505050506040513d60208110156109de57600080fd5b8101908080519060200190929190505050610a61576040517f08c379a00000000000000000000000000000000000000000000000000000000081526004018080602001828103825260178152602001807f737263546f6b656e20617070726f7665206661696c656400000000000000000081525060200191505060405180910390fd5b60008090505b8160000180549050811015610fae576000826000018281548110610a8757fe5b9060005260206000209060030201905060008160000160009054906101000a900473ffffffffffffffffffffffffffffffffffffffff169050600060648360020154870281610ad257fe5b04905060008360010160009054906101000a900473ffffffffffffffffffffffffffffffffffffffff1690506000821415610b105750505050610fa1565b73cb09297151ae94f46a73c2d7c04b0f2c30f6449473ffffffffffffffffffffffffffffffffffffffff168373ffffffffffffffffffffffffffffffffffffffff161415610d8c578273ffffffffffffffffffffffffffffffffffffffff166323b872dd3383856040518463ffffffff1660e01b8152600401808473ffffffffffffffffffffffffffffffffffffffff1673ffffffffffffffffffffffffffffffffffffffff1681526020018373ffffffffffffffffffffffffffffffffffffffff1673ffffffffffffffffffffffffffffffffffffffff1681526020018281526020019350505050602060405180830381600087803b158015610c1357600080fd5b505af1158015610c27573d6000803e3d6000fd5b505050506040513d6020811015610c3d57600080fd5b8101908080519060200190929190505050610cc0576040517f08c379a00000000000000000000000000000000000000000000000000000000081526004018080602001828103825260188152602001807f737263546f6b656e207472616e73666572206661696c6564000000000000000081525060200191505060405180910390fd5b8360010160009054906101000a900473ffffffffffffffffffffffffffffffffffffffff1673ffffffffffffffffffffffffffffffffffffffff1663b9b8c24633846040518363ffffffff1660e01b8152600401808373ffffffffffffffffffffffffffffffffffffffff1673ffffffffffffffffffffffffffffffffffffffff16815260200182815260200192505050600060405180830381600087803b158015610d6b57600080fd5b505af1158015610d7f573d6000803e3d6000fd5b5050505050505050610fa1565b6000600160009054906101000a900473ffffffffffffffffffffffffffffffffffffffff1673ffffffffffffffffffffffffffffffffffffffff1663809a9e558a86866040518463ffffffff1660e01b8152600401808473ffffffffffffffffffffffffffffffffffffffff1673ffffffffffffffffffffffffffffffffffffffff1681526020018373ffffffffffffffffffffffffffffffffffffffff1673ffffffffffffffffffffffffffffffffffffffff1681526020018281526020019350505050604080518083038186803b158015610e6857600080fd5b505afa158015610e7c573d6000803e3d6000fd5b505050506040513d6040811015610e9257600080fd5b8101908080519060200190929190805190602001909291905050505080915050610ebf89848685856117bd565b600081670de0b6b3a76400008581610ed357fe5b040290508560010160009054906101000a900473ffffffffffffffffffffffffffffffffffffffff1673ffffffffffffffffffffffffffffffffffffffff1663b9b8c24633836040518363ffffffff1660e01b8152600401808373ffffffffffffffffffffffffffffffffffffffff1673ffffffffffffffffffffffffffffffffffffffff16815260200182815260200192505050600060405180830381600087803b158015610f8257600080fd5b505af1158015610f96573d6000803e3d6000fd5b505050505050505050505b8080600101915050610a67565b5050505050565b600260149054906101000a900460ff1681565b610fd06113ce565b611042576040517f08c379a00000000000000000000000000000000000000000000000000000000081526004018080602001828103825260208152602001807f4f776e61626c653a2063616c6c6572206973206e6f7420746865206f776e657281525060200191505060405180910390fd5b600073ffffffffffffffffffffffffffffffffffffffff166000809054906101000a900473ffffffffffffffffffffffffffffffffffffffff1673ffffffffffffffffffffffffffffffffffffffff167f8be0079c531659141344cd1fd0a4f28419497f9722a3daafe3b4186f6b6457e060405160405180910390a360008060006101000a81548173ffffffffffffffffffffffffffffffffffffffff021916908373ffffffffffffffffffffffffffffffffffffffff160217905550565b60608060606000600360008860ff1660ff168152602001908152602001600020905060008160000180549050116111a0576040517f08c379a00000000000000000000000000000000000000000000000000000000081526004018080602001828103825260148152602001807f496e76616c696420706f7274666f6c696f20494400000000000000000000000081525060200191505060405180910390fd5b80600001805490506040519080825280602002602001820160405280156111d65781602001602082028038833980820191505090505b509350806000018054905060405190808252806020026020018201604052801561120f5781602001602082028038833980820191505090505b50925080600001805490506040519080825280602002602001820160405280156112485781602001602082028038833980820191505090505b50915060008090505b816000018054905081101561139a57600082600001828154811061127157fe5b9060005260206000209060030201905060008160000160009054906101000a900473ffffffffffffffffffffffffffffffffffffffff1690506000606483600201548a02816112bc57fe5b049050808885815181106112cc57fe5b602002602001018181525050818785815181106112e557fe5b602002602001019073ffffffffffffffffffffffffffffffffffffffff16908173ffffffffffffffffffffffffffffffffffffffff16815250508260010160009054906101000a900473ffffffffffffffffffffffffffffffffffffffff1686858151811061135057fe5b602002602001019073ffffffffffffffffffffffffffffffffffffffff16908173ffffffffffffffffffffffffffffffffffffffff16815250505050508080600101915050611251565b505093509350939050565b60008060009054906101000a900473ffffffffffffffffffffffffffffffffffffffff16905090565b60008060009054906101000a900473ffffffffffffffffffffffffffffffffffffffff1673ffffffffffffffffffffffffffffffffffffffff163373ffffffffffffffffffffffffffffffffffffffff1614905090565b61142d6113ce565b61149f576040517f08c379a00000000000000000000000000000000000000000000000000000000081526004018080602001828103825260208152602001807f4f776e61626c653a2063616c6c6572206973206e6f7420746865206f776e657281525060200191505060405180910390fd5b600060036000600260149054906101000a900460ff1660ff1660ff168152602001908152602001600020905060008090505b878790508160ff161015611674576114e7611b16565b60405180606001604052808a8a8560ff1681811061150157fe5b9050602002013573ffffffffffffffffffffffffffffffffffffffff1673ffffffffffffffffffffffffffffffffffffffff16815260200188888560ff1681811061154857fe5b9050602002013573ffffffffffffffffffffffffffffffffffffffff1673ffffffffffffffffffffffffffffffffffffffff16815260200186868560ff1681811061158f57fe5b90506020020135815250905082600001819080600181540180825580915050906001820390600052602060002090600302016000909192909190915060008201518160000160006101000a81548173ffffffffffffffffffffffffffffffffffffffff021916908373ffffffffffffffffffffffffffffffffffffffff16021790555060208201518160010160006101000a81548173ffffffffffffffffffffffffffffffffffffffff021916908373ffffffffffffffffffffffffffffffffffffffff160217905550604082015181600201555050505080806001019150506114d1565b507ff17a7df2a640148633f2311a5e7b4b9c2a11124d43cdeae9bc57c7f8fd088a3f6002601481819054906101000a900460ff168092919060010191906101000a81548160ff021916908360ff160217905550604051808260ff1660ff16815260200191505060405180910390a150505050505050565b600160009054906101000a900473ffffffffffffffffffffffffffffffffffffffff1681565b6117196113ce565b61178b576040517f08c379a00000000000000000000000000000000000000000000000000000000081526004018080602001828103825260208152602001807f4f776e61626c653a2063616c6c6572206973206e6f7420746865206f776e657281525060200191505060405180910390fd5b611794816119d2565b50565b600260009054906101000a900473ffffffffffffffffffffffffffffffffffffffff1681565b6060600160009054906101000a900473ffffffffffffffffffffffffffffffffffffffff1673ffffffffffffffffffffffffffffffffffffffff166329589f61878787876b204fce5e3e25026110000000886000896040518963ffffffff1660e01b8152600401808973ffffffffffffffffffffffffffffffffffffffff1673ffffffffffffffffffffffffffffffffffffffff1681526020018881526020018773ffffffffffffffffffffffffffffffffffffffff1673ffffffffffffffffffffffffffffffffffffffff1681526020018673ffffffffffffffffffffffffffffffffffffffff1673ffffffffffffffffffffffffffffffffffffffff1681526020018581526020018481526020018373ffffffffffffffffffffffffffffffffffffffff1673ffffffffffffffffffffffffffffffffffffffff16815260200180602001828103825283818151815260200191508051906020019080838360005b8381101561193b578082015181840152602081019050611920565b50505050905090810190601f1680156119685780820380516001836020036101000a031916815260200191505b509950505050505050505050602060405180830381600087803b15801561198e57600080fd5b505af11580156119a2573d6000803e3d6000fd5b505050506040513d60208110156119b857600080fd5b810190808051906020019092919050505050505050505050565b600073ffffffffffffffffffffffffffffffffffffffff168173ffffffffffffffffffffffffffffffffffffffff161415611a58576040517f08c379a0000000000000000000000000000000000000000000000000000000008152600401808060200182810382526026815260200180611b646026913960400191505060405180910390fd5b8073ffffffffffffffffffffffffffffffffffffffff166000809054906101000a900473ffffffffffffffffffffffffffffffffffffffff1673ffffffffffffffffffffffffffffffffffffffff167f8be0079c531659141344cd1fd0a4f28419497f9722a3daafe3b4186f6b6457e060405160405180910390a3806000806101000a81548173ffffffffffffffffffffffffffffffffffffffff021916908373ffffffffffffffffffffffffffffffffffffffff16021790555050565b6040518060600160405280600073ffffffffffffffffffffffffffffffffffffffff168152602001600073ffffffffffffffffffffffffffffffffffffffff16815260200160008152509056fe4f776e61626c653a206e6577206f776e657220697320746865207a65726f2061646472657373a265627a7a72315820e935b2782c3cd141f4efacc32d414192a3fde8ecd32839c9743ece711361699c64736f6c634300050b0032",
  "source": "pragma solidity ^0.5.11;\n\nimport { IERC20 } from \"@openzeppelin/contracts/token/ERC20/IERC20.sol\";\nimport { KyberNetworkProxyInterface } from \"./kyber/KyberNetworkProxyInterface.sol\";\nimport { FundManagerAcl } from \"./FundManagerAcl.sol\";\nimport { Investor } from \"./Investor.sol\";\n\ncontract InstaStake is FundManagerAcl {\n  uint256 constant internal MAX_QTY = 10 ** 28; // 10B tokens\n\n  KyberNetworkProxyInterface public kyberProxy;\n  address payable public vault;\n\n  struct Asset {\n    IERC20 token;\n    Investor tokenInvestor;\n    uint256 weight;\n  }\n\n  struct Portfolio {\n    Asset[] assets;\n  }\n\n  uint8 public portfolioId;\n  // portfolioId to Portfolio\n  mapping(uint8 => Portfolio) portfolios;\n\n  event NewPortfolio(uint8 portfolioId);\n\n  constructor(address _kyberProxy) public {\n    kyberProxy = KyberNetworkProxyInterface(_kyberProxy);\n  }\n\n  function createPortfolio(IERC20[] calldata tokens, Investor[] calldata investorContracts, uint256[] calldata weights) external onlyFundManager {\n    Portfolio storage portfolio = portfolios[portfolioId];\n    for(uint8 i = 0; i < tokens.length; i++) {\n      Asset memory asset = Asset(tokens[i], investorContracts[i], weights[i]);\n      portfolio.assets.push(asset);\n    }\n    emit NewPortfolio(portfolioId++);\n  }\n\n  function getPortfolio(uint8 portfolioStrategy)\n    public view\n    returns(address[] memory tokens, uint256[] memory weights)\n  {\n    Portfolio storage portfolio = portfolios[portfolioStrategy];\n    uint256 length = portfolio.assets.length;\n    tokens = new address[](length);\n    weights = new uint256[](length);\n\n    for (uint256 i = 0; i < length; i++) {\n      Asset storage asset = portfolio.assets[i];\n      tokens[i] = address(asset.token);\n      weights[i] = asset.weight;\n    }\n  }\n\n  function buy2(uint8 portfolioStrategy, IERC20 srcToken, uint256 amount)\n    external view\n    returns(uint256[] memory q, address[] memory  b, address[] memory c){\n    Portfolio storage portfolio = portfolios[portfolioStrategy];\n    require(portfolio.assets.length > 0, \"Invalid portfolio ID\");\n    q = new uint256[](portfolio.assets.length);\n    b = new address[](portfolio.assets.length);\n    c = new address[](portfolio.assets.length);\n    for (uint256 i = 0; i < portfolio.assets.length; i++) {\n      Asset storage asset = portfolio.assets[i];\n      IERC20 destToken = asset.token;\n      uint256 srcQty = (amount * asset.weight) / 100;\n      q[i] = srcQty;\n      b[i] = address(destToken);\n      c[i] = address(asset.tokenInvestor);\n    }\n  }\n\n  function buy(uint8 portfolioStrategy, IERC20 srcToken, uint256 amount) external {\n    Portfolio storage portfolio = portfolios[portfolioStrategy];\n    require(portfolio.assets.length > 0, \"Invalid portfolio ID\");\n    // obtain destToken from Kyber swap\n    require(\n      srcToken.transferFrom(msg.sender, address(this), amount),\n      \"srcToken transfer failed\"\n    );\n    require(\n      srcToken.approve(address(kyberProxy), amount),\n      \"srcToken approve failed\"\n    );\n\n    for (uint256 i = 0; i < portfolio.assets.length; i++) {\n      Asset storage asset = portfolio.assets[i];\n      IERC20 destToken = asset.token;\n      uint256 srcQty = (amount * asset.weight) / 100;\n      address payable destAddress = address(uint160(address(asset.tokenInvestor)));\n      if (srcQty == 0) continue;\n\n      // synthetix doesnt work with kyber swap locally, as a hack pull directly from users account\n      if (address(destToken) == 0xcB09297151aE94f46a73c2d7c04B0F2c30f64494) {\n        require(\n          destToken.transferFrom(msg.sender, destAddress, srcQty),\n          \"srcToken transfer failed\"\n        );\n        asset.tokenInvestor.invest(msg.sender, srcQty);\n        continue;\n      }\n\n      // Get the minimum conversion rate\n      uint256 minConversionRate;\n      (minConversionRate,) = kyberProxy.getExpectedRate(srcToken, destToken, srcQty);\n      swapTokenToToken(\n        srcToken,\n        srcQty,\n        destToken,\n        destAddress,\n        minConversionRate\n      );\n      // @todo check partial fills\n      uint256 destAmount = (srcQty / (10 ** 18)) * minConversionRate; // works for whole numbers of srcQty\n      asset.tokenInvestor.invest(msg.sender, destAmount);\n    }\n  }\n\n  function swapTokenToToken(\n      IERC20 src,\n      uint srcAmount,\n      IERC20 dest,\n      address payable destAddress,\n      uint minConversionRate) internal {\n    bytes memory hint;\n    kyberProxy.tradeWithHint(\n      src,\n      srcAmount,\n      dest,\n      destAddress,\n      MAX_QTY,\n      minConversionRate,\n      address(0),\n      hint\n    );\n  }\n}\n",
  "sourcePath": "/Users/arpit/projects/instastake/contracts/InstaStake.sol",
  "compiler": {
    "name": "solc",
    "version": "0.5.11+commit.c082d0b4.Emscripten.clang"
  },
  "schemaVersion": "3.0.16",
  "updatedAt": "2019-10-28T11:32:34.140Z",
  "devdoc": {
    "methods": {
      "isOwner()": {
        "details": "Returns true if the caller is the current owner."
      },
      "owner()": {
        "details": "Returns the address of the current owner."
      },
      "renounceOwnership()": {
        "details": "Leaves the contract without owner. It will not be possible to call `onlyOwner` functions anymore. Can only be called by the current owner.     * > Note: Renouncing ownership will leave the contract without an owner, thereby removing any functionality that is only available to the owner."
      },
      "transferOwnership(address)": {
        "details": "Transfers ownership of the contract to a new account (`newOwner`). Can only be called by the current owner."
      }
    }
  },
  "userdoc": {
    "methods": {}
  }
}