{
  "contractName": "StakeManager",
  "abi": [
    {
      "constant": true,
      "inputs": [
        {
          "internalType": "uint256",
          "name": "",
          "type": "uint256"
        }
      ],
      "name": "validators",
      "outputs": [
        {
          "internalType": "address",
          "name": "signer",
          "type": "address"
        },
        {
          "internalType": "uint256",
          "name": "stake",
          "type": "uint256"
        },
        {
          "internalType": "uint256",
          "name": "reward",
          "type": "uint256"
        },
        {
          "internalType": "uint256",
          "name": "bondedAmount",
          "type": "uint256"
        }
      ],
      "payable": false,
      "stateMutability": "view",
      "type": "function"
    },
    {
      "constant": true,
      "inputs": [],
      "name": "validatorID",
      "outputs": [
        {
          "internalType": "uint256",
          "name": "",
          "type": "uint256"
        }
      ],
      "payable": false,
      "stateMutability": "view",
      "type": "function"
    },
    {
      "constant": false,
      "inputs": [],
      "name": "renounceOwnership",
      "outputs": [],
      "payable": false,
      "stateMutability": "nonpayable",
      "type": "function"
    },
    {
      "constant": true,
      "inputs": [],
      "name": "owner",
      "outputs": [
        {
          "internalType": "address",
          "name": "",
          "type": "address"
        }
      ],
      "payable": false,
      "stateMutability": "view",
      "type": "function"
    },
    {
      "constant": true,
      "inputs": [],
      "name": "isOwner",
      "outputs": [
        {
          "internalType": "bool",
          "name": "",
          "type": "bool"
        }
      ],
      "payable": false,
      "stateMutability": "view",
      "type": "function"
    },
    {
      "constant": false,
      "inputs": [
        {
          "internalType": "address",
          "name": "newOwner",
          "type": "address"
        }
      ],
      "name": "transferOwnership",
      "outputs": [],
      "payable": false,
      "stateMutability": "nonpayable",
      "type": "function"
    },
    {
      "constant": true,
      "inputs": [],
      "name": "token",
      "outputs": [
        {
          "internalType": "contract IERC20",
          "name": "",
          "type": "address"
        }
      ],
      "payable": false,
      "stateMutability": "view",
      "type": "function"
    },
    {
      "inputs": [
        {
          "internalType": "address",
          "name": "_token",
          "type": "address"
        }
      ],
      "payable": false,
      "stateMutability": "nonpayable",
      "type": "constructor"
    },
    {
      "anonymous": false,
      "inputs": [
        {
          "indexed": true,
          "internalType": "address",
          "name": "previousOwner",
          "type": "address"
        },
        {
          "indexed": true,
          "internalType": "address",
          "name": "newOwner",
          "type": "address"
        }
      ],
      "name": "OwnershipTransferred",
      "type": "event"
    },
    {
      "constant": false,
      "inputs": [
        {
          "internalType": "uint256",
          "name": "amount",
          "type": "uint256"
        }
      ],
      "name": "stake",
      "outputs": [],
      "payable": false,
      "stateMutability": "nonpayable",
      "type": "function"
    },
    {
      "constant": false,
      "inputs": [
        {
          "internalType": "address",
          "name": "user",
          "type": "address"
        },
        {
          "internalType": "uint256",
          "name": "amount",
          "type": "uint256"
        }
      ],
      "name": "stakeFor",
      "outputs": [],
      "payable": false,
      "stateMutability": "nonpayable",
      "type": "function"
    },
    {
      "constant": false,
      "inputs": [
        {
          "internalType": "uint256",
          "name": "validatorId",
          "type": "uint256"
        },
        {
          "internalType": "uint256",
          "name": "amount",
          "type": "uint256"
        }
      ],
      "name": "bondToValidator",
      "outputs": [],
      "payable": false,
      "stateMutability": "nonpayable",
      "type": "function"
    },
    {
      "constant": false,
      "inputs": [
        {
          "internalType": "uint256",
          "name": "validatorId",
          "type": "uint256"
        },
        {
          "internalType": "uint256",
          "name": "amount",
          "type": "uint256"
        }
      ],
      "name": "unbondFromValidator",
      "outputs": [],
      "payable": false,
      "stateMutability": "nonpayable",
      "type": "function"
    },
    {
      "constant": false,
      "inputs": [
        {
          "internalType": "uint256",
          "name": "validatorId",
          "type": "uint256"
        },
        {
          "internalType": "uint256",
          "name": "amount",
          "type": "uint256"
        }
      ],
      "name": "rewardValidator",
      "outputs": [],
      "payable": false,
      "stateMutability": "nonpayable",
      "type": "function"
    },
    {
      "constant": false,
      "inputs": [
        {
          "internalType": "uint256",
          "name": "validatorId",
          "type": "uint256"
        }
      ],
      "name": "distributeRewards",
      "outputs": [
        {
          "internalType": "bool",
          "name": "",
          "type": "bool"
        }
      ],
      "payable": false,
      "stateMutability": "nonpayable",
      "type": "function"
    }
  ],
  "bytecode": "0x608060405234801561001057600080fd5b506040516115b13803806115b18339818101604052602081101561003357600080fd5b8101908080519060200190929190505050336000806101000a81548173ffffffffffffffffffffffffffffffffffffffff021916908373ffffffffffffffffffffffffffffffffffffffff1602179055506000809054906101000a900473ffffffffffffffffffffffffffffffffffffffff1673ffffffffffffffffffffffffffffffffffffffff16600073ffffffffffffffffffffffffffffffffffffffff167f8be0079c531659141344cd1fd0a4f28419497f9722a3daafe3b4186f6b6457e060405160405180910390a380600360006101000a81548173ffffffffffffffffffffffffffffffffffffffff021916908373ffffffffffffffffffffffffffffffffffffffff16021790555050611460806101516000396000f3fe608060405234801561001057600080fd5b50600436106100cf5760003560e01c806369b9732f1161008c5780638f32d59b116100665780638f32d59b14610305578063a694fc3a14610327578063f2fde38b14610355578063fc0c546a14610399576100cf565b806369b9732f14610293578063715018a6146102b15780638da5cb5b146102bb576100cf565b8063013a557f146100d45780632ee409081461010c57806335aa2e441461015a57806335ab895b146101dd578063556a61b71461021557806359974e381461024d575b600080fd5b61010a600480360360408110156100ea57600080fd5b8101908080359060200190929190803590602001909291905050506103e3565b005b6101586004803603604081101561012257600080fd5b81019080803573ffffffffffffffffffffffffffffffffffffffff169060200190929190803590602001909291905050506106d2565b005b6101866004803603602081101561017057600080fd5b81019080803590602001909291905050506108eb565b604051808573ffffffffffffffffffffffffffffffffffffffff1673ffffffffffffffffffffffffffffffffffffffff16815260200184815260200183815260200182815260200194505050505060405180910390f35b610213600480360360408110156101f357600080fd5b81019080803590602001909291908035906020019092919050505061093b565b005b61024b6004803603604081101561022b57600080fd5b810190808035906020019092919080359060200190929190505050610bd1565b005b6102796004803603602081101561026357600080fd5b8101908080359060200190929190505050610e12565b604051808215151515815260200191505060405180910390f35b61029b610fa4565b6040518082815260200191505060405180910390f35b6102b9610faa565b005b6102c36110e3565b604051808273ffffffffffffffffffffffffffffffffffffffff1673ffffffffffffffffffffffffffffffffffffffff16815260200191505060405180910390f35b61030d61110c565b604051808215151515815260200191505060405180910390f35b6103536004803603602081101561033d57600080fd5b8101908080359060200190929190505050611163565b005b6103976004803603602081101561036b57600080fd5b81019080803573ffffffffffffffffffffffffffffffffffffffff169060200190929190505050611170565b005b6103a16111f6565b604051808273ffffffffffffffffffffffffffffffffffffffff1673ffffffffffffffffffffffffffffffffffffffff16815260200191505060405180910390f35b81600060026000838152602001908152602001600020600101541415610471576040517f08c379a00000000000000000000000000000000000000000000000000000000081526004018080602001828103825260148152602001807f496e76616c69642076616c696461746f7220496400000000000000000000000081525060200191505060405180910390fd5b600060026000858152602001908152602001600020905060008160050160003373ffffffffffffffffffffffffffffffffffffffff1673ffffffffffffffffffffffffffffffffffffffff16815260200190815260200160002054905060008260040182815481106104df57fe5b90600052602060002090600202019050848160010154101561054c576040517f08c379a00000000000000000000000000000000000000000000000000000000081526004018080602001828103825260258152602001806114076025913960400191505060405180910390fd5b848160010160008282540392505081905550848360030160008282540392505081905550600360009054906101000a900473ffffffffffffffffffffffffffffffffffffffff1673ffffffffffffffffffffffffffffffffffffffff1663a9059cbb3383600101546040518363ffffffff1660e01b8152600401808373ffffffffffffffffffffffffffffffffffffffff1673ffffffffffffffffffffffffffffffffffffffff16815260200182815260200192505050602060405180830381600087803b15801561061d57600080fd5b505af1158015610631573d6000803e3d6000fd5b505050506040513d602081101561064757600080fd5b81019080805190602001909291905050506106ca576040517f08c379a00000000000000000000000000000000000000000000000000000000081526004018080602001828103825260168152602001807f526577617264205472616e73666572206661696c65640000000000000000000081525060200191505060405180910390fd5b505050505050565b600360009054906101000a900473ffffffffffffffffffffffffffffffffffffffff1673ffffffffffffffffffffffffffffffffffffffff166323b872dd3330846040518463ffffffff1660e01b8152600401808473ffffffffffffffffffffffffffffffffffffffff1673ffffffffffffffffffffffffffffffffffffffff1681526020018373ffffffffffffffffffffffffffffffffffffffff1673ffffffffffffffffffffffffffffffffffffffff1681526020018281526020019350505050602060405180830381600087803b1580156107af57600080fd5b505af11580156107c3573d6000803e3d6000fd5b505050506040513d60208110156107d957600080fd5b810190808051906020019092919050505061085c576040517f08c379a00000000000000000000000000000000000000000000000000000000081526004018080602001828103825260158152602001807f5472616e73666572207374616b65206661696c6564000000000000000000000081525060200191505060405180910390fd5b600060026000600160008154809291906001019190505581526020019081526020016000209050828160000160006101000a81548173ffffffffffffffffffffffffffffffffffffffff021916908373ffffffffffffffffffffffffffffffffffffffff1602179055508181600101819055508060040180548091906001016108e59190611360565b50505050565b60026020528060005260406000206000915090508060000160009054906101000a900473ffffffffffffffffffffffffffffffffffffffff16908060010154908060020154908060030154905084565b816000600260008381526020019081526020016000206001015414156109c9576040517f08c379a00000000000000000000000000000000000000000000000000000000081526004018080602001828103825260148152602001807f496e76616c69642076616c696461746f7220496400000000000000000000000081525060200191505060405180910390fd5b600033905082600260008681526020019081526020016000206003016000828254019250508190555060006002600086815260200190815260200160002060050160008373ffffffffffffffffffffffffffffffffffffffff1673ffffffffffffffffffffffffffffffffffffffff1681526020019081526020016000205490506000811415610b895760026000868152602001908152602001600020600401805490506002600087815260200190815260200160002060050160008473ffffffffffffffffffffffffffffffffffffffff1673ffffffffffffffffffffffffffffffffffffffff168152602001908152602001600020819055506002600086815260200190815260200160002060040160405180604001604052808473ffffffffffffffffffffffffffffffffffffffff168152602001868152509080600181540180825580915050906001820390600052602060002090600202016000909192909190915060008201518160000160006101000a81548173ffffffffffffffffffffffffffffffffffffffff021916908373ffffffffffffffffffffffffffffffffffffffff16021790555060208201518160010155505050610bca565b83600260008781526020019081526020016000206004018281548110610bab57fe5b9060005260206000209060020201600101600082825401925050819055505b5050505050565b81600060026000838152602001908152602001600020600101541415610c5f576040517f08c379a00000000000000000000000000000000000000000000000000000000081526004018080602001828103825260148152602001807f496e76616c69642076616c696461746f7220496400000000000000000000000081525060200191505060405180910390fd5b600360009054906101000a900473ffffffffffffffffffffffffffffffffffffffff1673ffffffffffffffffffffffffffffffffffffffff166323b872dd3330856040518463ffffffff1660e01b8152600401808473ffffffffffffffffffffffffffffffffffffffff1673ffffffffffffffffffffffffffffffffffffffff1681526020018373ffffffffffffffffffffffffffffffffffffffff1673ffffffffffffffffffffffffffffffffffffffff1681526020018281526020019350505050602060405180830381600087803b158015610d3c57600080fd5b505af1158015610d50573d6000803e3d6000fd5b505050506040513d6020811015610d6657600080fd5b8101908080519060200190929190505050610de9576040517f08c379a00000000000000000000000000000000000000000000000000000000081526004018080602001828103825260168152602001807f5472616e7366657220726577617264206661696c65640000000000000000000081525060200191505060405180910390fd5b816002600085815260200190815260200160002060020160008282540192505081905550505050565b600081600060026000838152602001908152602001600020600101541415610ea2576040517f08c379a00000000000000000000000000000000000000000000000000000000081526004018080602001828103825260148152602001807f496e76616c69642076616c696461746f7220496400000000000000000000000081525060200191505060405180910390fd5b6000600260008581526020019081526020016000209050600081600201541415610ed0576001925050610f9e565b60008160030154826001015401905060008090505b8260040180549050811015610f7657600082846004018381548110610f0657fe5b90600052602060002090600202016001015485600201540281610f2557fe5b04905080846004018381548110610f3857fe5b906000526020600020906002020160010160008282540192505081905550808460020160008282540392505081905550508080600101915050610ee5565b5081600201548260010160008282540192505081905550600082600201819055506001935050505b50919050565b60015481565b610fb261110c565b611024576040517f08c379a00000000000000000000000000000000000000000000000000000000081526004018080602001828103825260208152602001807f4f776e61626c653a2063616c6c6572206973206e6f7420746865206f776e657281525060200191505060405180910390fd5b600073ffffffffffffffffffffffffffffffffffffffff166000809054906101000a900473ffffffffffffffffffffffffffffffffffffffff1673ffffffffffffffffffffffffffffffffffffffff167f8be0079c531659141344cd1fd0a4f28419497f9722a3daafe3b4186f6b6457e060405160405180910390a360008060006101000a81548173ffffffffffffffffffffffffffffffffffffffff021916908373ffffffffffffffffffffffffffffffffffffffff160217905550565b60008060009054906101000a900473ffffffffffffffffffffffffffffffffffffffff16905090565b60008060009054906101000a900473ffffffffffffffffffffffffffffffffffffffff1673ffffffffffffffffffffffffffffffffffffffff163373ffffffffffffffffffffffffffffffffffffffff1614905090565b61116d33826106d2565b50565b61117861110c565b6111ea576040517f08c379a00000000000000000000000000000000000000000000000000000000081526004018080602001828103825260208152602001807f4f776e61626c653a2063616c6c6572206973206e6f7420746865206f776e657281525060200191505060405180910390fd5b6111f38161121c565b50565b600360009054906101000a900473ffffffffffffffffffffffffffffffffffffffff1681565b600073ffffffffffffffffffffffffffffffffffffffff168173ffffffffffffffffffffffffffffffffffffffff1614156112a2576040517f08c379a00000000000000000000000000000000000000000000000000000000081526004018080602001828103825260268152602001806113e16026913960400191505060405180910390fd5b8073ffffffffffffffffffffffffffffffffffffffff166000809054906101000a900473ffffffffffffffffffffffffffffffffffffffff1673ffffffffffffffffffffffffffffffffffffffff167f8be0079c531659141344cd1fd0a4f28419497f9722a3daafe3b4186f6b6457e060405160405180910390a3806000806101000a81548173ffffffffffffffffffffffffffffffffffffffff021916908373ffffffffffffffffffffffffffffffffffffffff16021790555050565b81548183558181111561138d5760020281600202836000526020600020918201910161138c9190611392565b5b505050565b6113dd91905b808211156113d957600080820160006101000a81549073ffffffffffffffffffffffffffffffffffffffff0219169055600182016000905550600201611398565b5090565b9056fe4f776e61626c653a206e6577206f776e657220697320746865207a65726f2061646472657373756e626f6e6446726f6d56616c696461746f723a205769746864726177696e67206d6f7265a265627a7a723158208485891a4e067813f05a7c804f65256d4a025c5eb7f4d281e55804c2b65c9fd664736f6c634300050b0032",
  "source": "pragma solidity ^0.5.11;\n\nimport { IERC20 } from \"@openzeppelin/contracts/token/ERC20/IERC20.sol\";\nimport { Ownable } from \"@openzeppelin/contracts/ownership/Ownable.sol\";\n\n// import { DelegationManager } from \"./DelegationManager.sol\";\n\ncontract StakeManager is Ownable {\n  struct Delegator {\n    address delegator;\n    uint256 amount;\n  }\n\n  struct Validator {\n    address signer;\n    uint256 stake;\n    uint256 reward;\n    uint256 bondedAmount;\n    Delegator[] delegators;\n    mapping(address => uint256) delegatorMapping;\n  }\n  uint256 public validatorID;\n  mapping (uint256 => Validator) public validators;\n  IERC20 public token;\n\n  constructor(address _token) public {\n    token = IERC20(_token);\n  }\n\n  modifier isValidator(uint256 validatorId) {\n    require(\n      validators[validatorId].stake != 0,\n      \"Invalid validator Id\"\n    );\n    _;\n  }\n\n  function stake(uint256 amount) external {\n    stakeFor(msg.sender, amount);\n  }\n\n  function stakeFor(address user, uint256 amount) public {\n    require(\n      token.transferFrom(msg.sender, address(this), amount),\n      \"Transfer stake failed\"\n    );\n    Validator storage validator = validators[validatorID++];\n    validator.signer = user;\n    validator.stake = amount;\n    validator.delegators.length++; // need to start inserting from 1st position\n  }\n\n  function bondToValidator(uint256 validatorId, uint256 amount) public isValidator(validatorId) {\n    address delegator = msg.sender;\n    // require(\n    //   token.transferFrom(delegator, address(this), amount),\n    //   \"Transfer stake failed\"\n    // );\n    validators[validatorId].bondedAmount += amount;\n    uint256 index = validators[validatorId].delegatorMapping[delegator];\n    if (index == 0) {\n      validators[validatorId].delegatorMapping[delegator] = validators[validatorId].delegators.length;\n      validators[validatorId].delegators.push(Delegator(delegator, amount));\n    } else {\n       validators[validatorId].delegators[index].amount += amount;\n    }\n  }\n\n  // Make sure distributeRewards is called before this\n  function unbondFromValidator(uint256 validatorId, uint256 amount) public isValidator(validatorId) {\n    Validator storage validator = validators[validatorId];\n    uint256 index = validator.delegatorMapping[msg.sender];\n    Delegator storage delegate = validator.delegators[index];\n    require(\n      delegate.amount >= amount,\n      \"unbondFromValidator: Withdrawing more\"\n    );\n    delegate.amount -= amount;\n    validator.bondedAmount -= amount;\n    require(\n      token.transfer(msg.sender, delegate.amount),\n      \"Reward Transfer failed\"\n    );\n  }\n\n  function rewardValidator(uint256 validatorId, uint256 amount) public /* onlyOwner */ isValidator(validatorId) {\n    require(\n      token.transferFrom(msg.sender, address(this), amount),\n      \"Transfer reward failed\"\n    );\n    validators[validatorId].reward += amount;\n  }\n\n  function distributeRewards(uint256 validatorId) public isValidator(validatorId) returns(bool) {\n    Validator storage validator = validators[validatorId];\n    if (validator.reward == 0) return true;\n    uint256 totalStake = validator.stake + validator.bondedAmount;\n    for (uint256 i = 0; i < validator.delegators.length; i++) {\n      uint256 reward = (validator.reward * validator.delegators[i].amount) / totalStake;\n      validator.delegators[i].amount += reward;\n      validator.reward -= reward;\n    }\n    // give reward to validator\n    validator.stake += validator.reward;\n    validator.reward = 0;\n    return true;\n  }\n}\n",
  "sourcePath": "/Users/yj/Developer/instastake/contracts/Matic/matic-protocol/StakeManager.sol",
  "compiler": {
    "name": "solc",
    "version": "0.5.11+commit.c082d0b4.Emscripten.clang"
  },
  "schemaVersion": "3.0.16",
  "updatedAt": "2019-10-23T17:17:50.012Z",
  "devdoc": {
    "methods": {
      "isOwner()": {
        "details": "Returns true if the caller is the current owner."
      },
      "owner()": {
        "details": "Returns the address of the current owner."
      },
      "renounceOwnership()": {
        "details": "Leaves the contract without owner. It will not be possible to call `onlyOwner` functions anymore. Can only be called by the current owner.     * > Note: Renouncing ownership will leave the contract without an owner, thereby removing any functionality that is only available to the owner."
      },
      "transferOwnership(address)": {
        "details": "Transfers ownership of the contract to a new account (`newOwner`). Can only be called by the current owner."
      }
    }
  },
  "userdoc": {
    "methods": {}
  }
}