{
  "contractName": "StakeManager",
  "abi": [
    {
      "constant": true,
      "inputs": [
        {
          "internalType": "uint256",
          "name": "",
          "type": "uint256"
        }
      ],
      "name": "validators",
      "outputs": [
        {
          "internalType": "address",
          "name": "signer",
          "type": "address"
        },
        {
          "internalType": "uint256",
          "name": "stake",
          "type": "uint256"
        },
        {
          "internalType": "uint256",
          "name": "reward",
          "type": "uint256"
        },
        {
          "internalType": "uint256",
          "name": "bondedAmount",
          "type": "uint256"
        }
      ],
      "payable": false,
      "stateMutability": "view",
      "type": "function"
    },
    {
      "constant": true,
      "inputs": [],
      "name": "validatorID",
      "outputs": [
        {
          "internalType": "uint256",
          "name": "",
          "type": "uint256"
        }
      ],
      "payable": false,
      "stateMutability": "view",
      "type": "function"
    },
    {
      "constant": false,
      "inputs": [],
      "name": "renounceOwnership",
      "outputs": [],
      "payable": false,
      "stateMutability": "nonpayable",
      "type": "function"
    },
    {
      "constant": true,
      "inputs": [],
      "name": "totalDelegated",
      "outputs": [
        {
          "internalType": "uint256",
          "name": "",
          "type": "uint256"
        }
      ],
      "payable": false,
      "stateMutability": "view",
      "type": "function"
    },
    {
      "constant": true,
      "inputs": [],
      "name": "owner",
      "outputs": [
        {
          "internalType": "address",
          "name": "",
          "type": "address"
        }
      ],
      "payable": false,
      "stateMutability": "view",
      "type": "function"
    },
    {
      "constant": true,
      "inputs": [],
      "name": "isOwner",
      "outputs": [
        {
          "internalType": "bool",
          "name": "",
          "type": "bool"
        }
      ],
      "payable": false,
      "stateMutability": "view",
      "type": "function"
    },
    {
      "constant": false,
      "inputs": [
        {
          "internalType": "address",
          "name": "newOwner",
          "type": "address"
        }
      ],
      "name": "transferOwnership",
      "outputs": [],
      "payable": false,
      "stateMutability": "nonpayable",
      "type": "function"
    },
    {
      "constant": true,
      "inputs": [],
      "name": "token",
      "outputs": [
        {
          "internalType": "contract IERC20",
          "name": "",
          "type": "address"
        }
      ],
      "payable": false,
      "stateMutability": "view",
      "type": "function"
    },
    {
      "inputs": [
        {
          "internalType": "address",
          "name": "_token",
          "type": "address"
        }
      ],
      "payable": false,
      "stateMutability": "nonpayable",
      "type": "constructor"
    },
    {
      "anonymous": false,
      "inputs": [
        {
          "indexed": true,
          "internalType": "address",
          "name": "previousOwner",
          "type": "address"
        },
        {
          "indexed": true,
          "internalType": "address",
          "name": "newOwner",
          "type": "address"
        }
      ],
      "name": "OwnershipTransferred",
      "type": "event"
    },
    {
      "constant": false,
      "inputs": [
        {
          "internalType": "uint256",
          "name": "amount",
          "type": "uint256"
        }
      ],
      "name": "stake",
      "outputs": [],
      "payable": false,
      "stateMutability": "nonpayable",
      "type": "function"
    },
    {
      "constant": false,
      "inputs": [
        {
          "internalType": "address",
          "name": "user",
          "type": "address"
        },
        {
          "internalType": "uint256",
          "name": "amount",
          "type": "uint256"
        }
      ],
      "name": "stakeFor",
      "outputs": [],
      "payable": false,
      "stateMutability": "nonpayable",
      "type": "function"
    },
    {
      "constant": false,
      "inputs": [
        {
          "internalType": "uint256",
          "name": "validatorId",
          "type": "uint256"
        },
        {
          "internalType": "uint256",
          "name": "amount",
          "type": "uint256"
        }
      ],
      "name": "bondToValidator",
      "outputs": [],
      "payable": false,
      "stateMutability": "nonpayable",
      "type": "function"
    },
    {
      "constant": false,
      "inputs": [
        {
          "internalType": "uint256",
          "name": "validatorId",
          "type": "uint256"
        },
        {
          "internalType": "uint256",
          "name": "amount",
          "type": "uint256"
        }
      ],
      "name": "unbondFromValidator",
      "outputs": [],
      "payable": false,
      "stateMutability": "nonpayable",
      "type": "function"
    },
    {
      "constant": false,
      "inputs": [
        {
          "internalType": "uint256",
          "name": "validatorId",
          "type": "uint256"
        },
        {
          "internalType": "uint256",
          "name": "amount",
          "type": "uint256"
        }
      ],
      "name": "rewardValidator",
      "outputs": [],
      "payable": false,
      "stateMutability": "nonpayable",
      "type": "function"
    },
    {
      "constant": false,
      "inputs": [
        {
          "internalType": "uint256",
          "name": "validatorId",
          "type": "uint256"
        }
      ],
      "name": "distributeRewards",
      "outputs": [
        {
          "internalType": "bool",
          "name": "",
          "type": "bool"
        }
      ],
      "payable": false,
      "stateMutability": "nonpayable",
      "type": "function"
    }
  ],
  "bytecode": "0x608060405234801561001057600080fd5b506040516116203803806116208339818101604052602081101561003357600080fd5b8101908080519060200190929190505050336000806101000a81548173ffffffffffffffffffffffffffffffffffffffff021916908373ffffffffffffffffffffffffffffffffffffffff1602179055506000809054906101000a900473ffffffffffffffffffffffffffffffffffffffff1673ffffffffffffffffffffffffffffffffffffffff16600073ffffffffffffffffffffffffffffffffffffffff167f8be0079c531659141344cd1fd0a4f28419497f9722a3daafe3b4186f6b6457e060405160405180910390a380600360006101000a81548173ffffffffffffffffffffffffffffffffffffffff021916908373ffffffffffffffffffffffffffffffffffffffff160217905550506114cf806101516000396000f3fe608060405234801561001057600080fd5b50600436106100ea5760003560e01c8063715018a61161008c5780638f32d59b116100665780638f32d59b1461033e578063a694fc3a14610360578063f2fde38b1461038e578063fc0c546a146103d2576100ea565b8063715018a6146102cc57806380d04de8146102d65780638da5cb5b146102f4576100ea565b806335ab895b116100c857806335ab895b146101f8578063556a61b71461023057806359974e381461026857806369b9732f146102ae576100ea565b8063013a557f146100ef5780632ee409081461012757806335aa2e4414610175575b600080fd5b6101256004803603604081101561010557600080fd5b81019080803590602001909291908035906020019092919050505061041c565b005b6101736004803603604081101561013d57600080fd5b81019080803573ffffffffffffffffffffffffffffffffffffffff1690602001909291908035906020019092919050505061071b565b005b6101a16004803603602081101561018b57600080fd5b8101908080359060200190929190505050610934565b604051808573ffffffffffffffffffffffffffffffffffffffff1673ffffffffffffffffffffffffffffffffffffffff16815260200184815260200183815260200182815260200194505050505060405180910390f35b61022e6004803603604081101561020e57600080fd5b810190808035906020019092919080359060200190929190505050610984565b005b6102666004803603604081101561024657600080fd5b810190808035906020019092919080359060200190929190505050610c2a565b005b6102946004803603602081101561027e57600080fd5b8101908080359060200190929190505050610e6b565b604051808215151515815260200191505060405180910390f35b6102b661100d565b6040518082815260200191505060405180910390f35b6102d4611013565b005b6102de61114c565b6040518082815260200191505060405180910390f35b6102fc611152565b604051808273ffffffffffffffffffffffffffffffffffffffff1673ffffffffffffffffffffffffffffffffffffffff16815260200191505060405180910390f35b61034661117b565b604051808215151515815260200191505060405180910390f35b61038c6004803603602081101561037657600080fd5b81019080803590602001909291905050506111d2565b005b6103d0600480360360208110156103a457600080fd5b81019080803573ffffffffffffffffffffffffffffffffffffffff1690602001909291905050506111df565b005b6103da611265565b604051808273ffffffffffffffffffffffffffffffffffffffff1673ffffffffffffffffffffffffffffffffffffffff16815260200191505060405180910390f35b816000600260008381526020019081526020016000206001015414156104aa576040517f08c379a00000000000000000000000000000000000000000000000000000000081526004018080602001828103825260148152602001807f496e76616c69642076616c696461746f7220496400000000000000000000000081525060200191505060405180910390fd5b600060026000858152602001908152602001600020905060008160050160003373ffffffffffffffffffffffffffffffffffffffff1673ffffffffffffffffffffffffffffffffffffffff168152602001908152602001600020549050600082600401828154811061051857fe5b906000526020600020906002020190508481600101541015610585576040517f08c379a00000000000000000000000000000000000000000000000000000000081526004018080602001828103825260258152602001806114766025913960400191505060405180910390fd5b84816001016000828254039250508190555084836003016000828254039250508190555084600460008282540392505081905550600360009054906101000a900473ffffffffffffffffffffffffffffffffffffffff1673ffffffffffffffffffffffffffffffffffffffff1663a9059cbb3383600101546040518363ffffffff1660e01b8152600401808373ffffffffffffffffffffffffffffffffffffffff1673ffffffffffffffffffffffffffffffffffffffff16815260200182815260200192505050602060405180830381600087803b15801561066657600080fd5b505af115801561067a573d6000803e3d6000fd5b505050506040513d602081101561069057600080fd5b8101908080519060200190929190505050610713576040517f08c379a00000000000000000000000000000000000000000000000000000000081526004018080602001828103825260168152602001807f526577617264205472616e73666572206661696c65640000000000000000000081525060200191505060405180910390fd5b505050505050565b600360009054906101000a900473ffffffffffffffffffffffffffffffffffffffff1673ffffffffffffffffffffffffffffffffffffffff166323b872dd3330846040518463ffffffff1660e01b8152600401808473ffffffffffffffffffffffffffffffffffffffff1673ffffffffffffffffffffffffffffffffffffffff1681526020018373ffffffffffffffffffffffffffffffffffffffff1673ffffffffffffffffffffffffffffffffffffffff1681526020018281526020019350505050602060405180830381600087803b1580156107f857600080fd5b505af115801561080c573d6000803e3d6000fd5b505050506040513d602081101561082257600080fd5b81019080805190602001909291905050506108a5576040517f08c379a00000000000000000000000000000000000000000000000000000000081526004018080602001828103825260158152602001807f5472616e73666572207374616b65206661696c6564000000000000000000000081525060200191505060405180910390fd5b600060026000600160008154809291906001019190505581526020019081526020016000209050828160000160006101000a81548173ffffffffffffffffffffffffffffffffffffffff021916908373ffffffffffffffffffffffffffffffffffffffff16021790555081816001018190555080600401805480919060010161092e91906113cf565b50505050565b60026020528060005260406000206000915090508060000160009054906101000a900473ffffffffffffffffffffffffffffffffffffffff16908060010154908060020154908060030154905084565b81600060026000838152602001908152602001600020600101541415610a12576040517f08c379a00000000000000000000000000000000000000000000000000000000081526004018080602001828103825260148152602001807f496e76616c69642076616c696461746f7220496400000000000000000000000081525060200191505060405180910390fd5b600033905082600260008681526020019081526020016000206003016000828254019250508190555060006002600086815260200190815260200160002060050160008373ffffffffffffffffffffffffffffffffffffffff1673ffffffffffffffffffffffffffffffffffffffff1681526020019081526020016000205490506000811415610bd25760026000868152602001908152602001600020600401805490506002600087815260200190815260200160002060050160008473ffffffffffffffffffffffffffffffffffffffff1673ffffffffffffffffffffffffffffffffffffffff168152602001908152602001600020819055506002600086815260200190815260200160002060040160405180604001604052808473ffffffffffffffffffffffffffffffffffffffff168152602001868152509080600181540180825580915050906001820390600052602060002090600202016000909192909190915060008201518160000160006101000a81548173ffffffffffffffffffffffffffffffffffffffff021916908373ffffffffffffffffffffffffffffffffffffffff16021790555060208201518160010155505050610c13565b83600260008781526020019081526020016000206004018281548110610bf457fe5b9060005260206000209060020201600101600082825401925050819055505b836004600082825401925050819055505050505050565b81600060026000838152602001908152602001600020600101541415610cb8576040517f08c379a00000000000000000000000000000000000000000000000000000000081526004018080602001828103825260148152602001807f496e76616c69642076616c696461746f7220496400000000000000000000000081525060200191505060405180910390fd5b600360009054906101000a900473ffffffffffffffffffffffffffffffffffffffff1673ffffffffffffffffffffffffffffffffffffffff166323b872dd3330856040518463ffffffff1660e01b8152600401808473ffffffffffffffffffffffffffffffffffffffff1673ffffffffffffffffffffffffffffffffffffffff1681526020018373ffffffffffffffffffffffffffffffffffffffff1673ffffffffffffffffffffffffffffffffffffffff1681526020018281526020019350505050602060405180830381600087803b158015610d9557600080fd5b505af1158015610da9573d6000803e3d6000fd5b505050506040513d6020811015610dbf57600080fd5b8101908080519060200190929190505050610e42576040517f08c379a00000000000000000000000000000000000000000000000000000000081526004018080602001828103825260168152602001807f5472616e7366657220726577617264206661696c65640000000000000000000081525060200191505060405180910390fd5b816002600085815260200190815260200160002060020160008282540192505081905550505050565b600081600060026000838152602001908152602001600020600101541415610efb576040517f08c379a00000000000000000000000000000000000000000000000000000000081526004018080602001828103825260148152602001807f496e76616c69642076616c696461746f7220496400000000000000000000000081525060200191505060405180910390fd5b6000600260008581526020019081526020016000209050600081600201541415610f29576001925050611007565b60008160030154826001015401905060008090505b8260040180549050811015610fdf57600082846004018381548110610f5f57fe5b90600052602060002090600202016001015485600201540281610f7e57fe5b04905080846004018381548110610f9157fe5b90600052602060002090600202016001016000828254019250508190555080600460008282540192505081905550808460020160008282540392505081905550508080600101915050610f3e565b5081600201548260010160008282540192505081905550600082600201819055506001935050505b50919050565b60015481565b61101b61117b565b61108d576040517f08c379a00000000000000000000000000000000000000000000000000000000081526004018080602001828103825260208152602001807f4f776e61626c653a2063616c6c6572206973206e6f7420746865206f776e657281525060200191505060405180910390fd5b600073ffffffffffffffffffffffffffffffffffffffff166000809054906101000a900473ffffffffffffffffffffffffffffffffffffffff1673ffffffffffffffffffffffffffffffffffffffff167f8be0079c531659141344cd1fd0a4f28419497f9722a3daafe3b4186f6b6457e060405160405180910390a360008060006101000a81548173ffffffffffffffffffffffffffffffffffffffff021916908373ffffffffffffffffffffffffffffffffffffffff160217905550565b60045481565b60008060009054906101000a900473ffffffffffffffffffffffffffffffffffffffff16905090565b60008060009054906101000a900473ffffffffffffffffffffffffffffffffffffffff1673ffffffffffffffffffffffffffffffffffffffff163373ffffffffffffffffffffffffffffffffffffffff1614905090565b6111dc338261071b565b50565b6111e761117b565b611259576040517f08c379a00000000000000000000000000000000000000000000000000000000081526004018080602001828103825260208152602001807f4f776e61626c653a2063616c6c6572206973206e6f7420746865206f776e657281525060200191505060405180910390fd5b6112628161128b565b50565b600360009054906101000a900473ffffffffffffffffffffffffffffffffffffffff1681565b600073ffffffffffffffffffffffffffffffffffffffff168173ffffffffffffffffffffffffffffffffffffffff161415611311576040517f08c379a00000000000000000000000000000000000000000000000000000000081526004018080602001828103825260268152602001806114506026913960400191505060405180910390fd5b8073ffffffffffffffffffffffffffffffffffffffff166000809054906101000a900473ffffffffffffffffffffffffffffffffffffffff1673ffffffffffffffffffffffffffffffffffffffff167f8be0079c531659141344cd1fd0a4f28419497f9722a3daafe3b4186f6b6457e060405160405180910390a3806000806101000a81548173ffffffffffffffffffffffffffffffffffffffff021916908373ffffffffffffffffffffffffffffffffffffffff16021790555050565b8154818355818111156113fc576002028160020283600052602060002091820191016113fb9190611401565b5b505050565b61144c91905b8082111561144857600080820160006101000a81549073ffffffffffffffffffffffffffffffffffffffff0219169055600182016000905550600201611407565b5090565b9056fe4f776e61626c653a206e6577206f776e657220697320746865207a65726f2061646472657373756e626f6e6446726f6d56616c696461746f723a205769746864726177696e67206d6f7265a265627a7a7231582084a97fff0705c4672f41dd999c5b28ffb69985c046d623d27f1d08b0dad657af64736f6c634300050b0032",
  "source": "pragma solidity ^0.5.11;\n\nimport { IERC20 } from \"@openzeppelin/contracts/token/ERC20/IERC20.sol\";\nimport { Ownable } from \"@openzeppelin/contracts/ownership/Ownable.sol\";\n\n// import { DelegationManager } from \"./DelegationManager.sol\";\n\ncontract StakeManager is Ownable {\n  struct Delegator {\n    address delegator;\n    uint256 amount;\n  }\n\n  struct Validator {\n    address signer;\n    uint256 stake;\n    uint256 reward;\n    uint256 bondedAmount;\n    Delegator[] delegators;\n    mapping(address => uint256) delegatorMapping;\n  }\n  uint256 public validatorID;\n  mapping (uint256 => Validator) public validators;\n  IERC20 public token;\n  uint256 public totalDelegated;\n\n  constructor(address _token) public {\n    token = IERC20(_token);\n  }\n\n  modifier isValidator(uint256 validatorId) {\n    require(\n      validators[validatorId].stake != 0,\n      \"Invalid validator Id\"\n    );\n    _;\n  }\n\n  function stake(uint256 amount) external {\n    stakeFor(msg.sender, amount);\n  }\n\n  function stakeFor(address user, uint256 amount) public {\n    require(\n      token.transferFrom(msg.sender, address(this), amount),\n      \"Transfer stake failed\"\n    );\n    Validator storage validator = validators[validatorID++];\n    validator.signer = user;\n    validator.stake = amount;\n    validator.delegators.length++; // need to start inserting from 1st position\n  }\n\n  function bondToValidator(uint256 validatorId, uint256 amount) public isValidator(validatorId) {\n    address delegator = msg.sender;\n    // require(\n    //   token.transferFrom(delegator, address(this), amount),\n    //   \"Transfer stake failed\"\n    // );\n    validators[validatorId].bondedAmount += amount;\n    uint256 index = validators[validatorId].delegatorMapping[delegator];\n    if (index == 0) {\n      validators[validatorId].delegatorMapping[delegator] = validators[validatorId].delegators.length;\n      validators[validatorId].delegators.push(Delegator(delegator, amount));\n    } else {\n       validators[validatorId].delegators[index].amount += amount;\n    }\n    totalDelegated += amount;\n  }\n\n  // Make sure distributeRewards is called before this\n  function unbondFromValidator(uint256 validatorId, uint256 amount) public isValidator(validatorId) {\n    Validator storage validator = validators[validatorId];\n    uint256 index = validator.delegatorMapping[msg.sender];\n    Delegator storage delegate = validator.delegators[index];\n    require(\n      delegate.amount >= amount,\n      \"unbondFromValidator: Withdrawing more\"\n    );\n    delegate.amount -= amount;\n    validator.bondedAmount -= amount;\n    totalDelegated -= amount;\n    require(\n      token.transfer(msg.sender, delegate.amount),\n      \"Reward Transfer failed\"\n    );\n  }\n\n  function rewardValidator(uint256 validatorId, uint256 amount) public /* onlyOwner */ isValidator(validatorId) {\n    require(\n      token.transferFrom(msg.sender, address(this), amount),\n      \"Transfer reward failed\"\n    );\n    validators[validatorId].reward += amount;\n  }\n\n  function distributeRewards(uint256 validatorId) public isValidator(validatorId) returns(bool) {\n    Validator storage validator = validators[validatorId];\n    if (validator.reward == 0) return true;\n    uint256 totalStake = validator.stake + validator.bondedAmount;\n    for (uint256 i = 0; i < validator.delegators.length; i++) {\n      uint256 reward = (validator.reward * validator.delegators[i].amount) / totalStake;\n      validator.delegators[i].amount += reward;\n      totalDelegated += reward;\n      validator.reward -= reward;\n    }\n    // give reward to validator\n    validator.stake += validator.reward;\n    validator.reward = 0;\n    return true;\n  }\n}\n",
  "sourcePath": "/Users/arpit/projects/instastake/contracts/matic/matic-protocol/StakeManager.sol",
  "compiler": {
    "name": "solc",
    "version": "0.5.11+commit.c082d0b4.Emscripten.clang"
  },
  "schemaVersion": "3.0.16",
  "updatedAt": "2019-10-26T11:32:06.626Z",
  "devdoc": {
    "methods": {
      "isOwner()": {
        "details": "Returns true if the caller is the current owner."
      },
      "owner()": {
        "details": "Returns the address of the current owner."
      },
      "renounceOwnership()": {
        "details": "Leaves the contract without owner. It will not be possible to call `onlyOwner` functions anymore. Can only be called by the current owner.     * > Note: Renouncing ownership will leave the contract without an owner, thereby removing any functionality that is only available to the owner."
      },
      "transferOwnership(address)": {
        "details": "Transfers ownership of the contract to a new account (`newOwner`). Can only be called by the current owner."
      }
    }
  },
  "userdoc": {
    "methods": {}
  }
}